S01000006C6162355F3136382E73726563B2
S11300000C9485000C9497000C9497000C94970022
S11300100C9497000C9497000C9497000C94970000
S11300200C9497000C9497000C9497000C949700F0
S11300300C9497000C9497000C9497000C949700E0
S11300400C9497000C9497000C9497000C949700D0
S11300500C9497000C9497000C9497000C949700C0
S11300600C94B0000C949700ED00C600C600C600C6
S1130070C600C600C600C600ED00C600C600C60025
S1130080C600C600C600C600F700C600C600C6000B
S1130090C600C600C600C600C600C600C600C6002C
S11300A0C600C600C600C600F700C600C600C600EB
S11300B0C600C600C600C600C600C600C600C6000C
S11300C0C600C600C600C6000E01C600C600C600B3
S11300D0C600C600C600C6001201C600C600C6009F
S11300E0C600C600C600C600C600C600C600C600DC
S11300F0C600C600C600C6002001C600C600C60071
S1130100C600C600C600C600DE0011241FBECFEF25
S1130110D4E0DEBFCDBF21E0A0E0B1E001C01D927C
S1130120A136B207E1F70E94C1010C94FE010C94C0
S1130130000041E060E070E080E90E943F010000BF
S1130140089542E066E071E080E90E945001E6E033
S1130150F1E0808190E0982F88272181822B0895F7
S11301601F920F920FB60F9211242F933F938F93E8
S11301709F93AF93BF93EF93FF93E091B9008E2FBA
S113018090E0FC013897E135F105A0F08091B900C9
S11301908093080184E08093BC00FF91EF91BF91AC
S11301A0AF919F918F913F912F910F900FBE0F9020
S11301B01F901895EC5CFF4F0C94F801809101019D
S11301C0E0910901F0910A01E80FF11D8091BB0053
S11301D0808384E98093BC00E0CF80910B018093FD
S11301E0BB001092010185E88093BC00D6CF8091BA
S11301F0010190910C01891760F7E0910901F091D8
S11302000A0191E0980F90930101E80FF11D80819C
S11302108093BB0085E88093BC00BFCF85EA8093C0
S1130220BC00BBCF2091010180910C0130E090E033
S1130230019728173907DCF485EC8093BC00ADCF17
S1130240E0910901F0910A018091010121E0280F58
S113025020930101E80FF11D8091BB008083809100
S11302600C0130E090E00197281739072CF385E85A
S11302708093BC0092CF8091BC00817008959091CE
S1130280BC0090FDFCCF8E7F80930B0170930A011C
S11302906093090140930C0185EA8093BC000895A2
S11302A09091BC0090FDFCCF816080930B01709312
S11302B00A016093090140930C0185EA8093BC0014
S11302C008958FEF8093BB001092B9008CE0809367
S11302D0B800089508959091C00095FFFCCF8093D5
S11302E0C6008091C00085FFFCCF0895FC012081E9
S11302F0222371F031969091C00095FFFCCF20939A
S1130300C6009091C00095FFFCCF21912111F3CF3D
S113031008959C01C901F9014491442399F02F5F88
S11303203F4FFC0184919091C00095FFFCCF8093D6
S1130330C6009091C00095FFFCCFC901F90144911A
S11303404111EDCF0895E1ECF0E080818861808374
S1130350E2ECF0E08081866080831092C50087E043
S11303608093C400089580E89EE302C0019739F0A9
S11303702091C00027FFFACF8091C600089580E045
S113038008950E94610141E060E070E080E90E940C
S11303903F0100000E94A3017894C1E00E94B301D0
S11303A0082E000C990B9093030180930201C093D3
S11303B0000142E066E071E080E90E945001209172
S11303C0060130E0322F222780910701282B309339
S11303D00501209304018091C00085FFFCCF209388
S11303E0C6008091C00085FFFCCF10920001D6CFDB
S11303F0EE0FFF1F0590F491E02D0994F894FFCFC0
S9030000FC
