S01500006C6162355F61746D65676134382E7372656371
S11300006AC084C083C082C081C080C07FC07EC0FB
S11300107DC07CC07BC07AC079C078C077C076C010
S113002075C074C089C072C071C070C06FC06EC02A
S11300300FC16CC049C122C121C120C11FC11EC151
S11300401DC11CC141C11AC119C118C117C116C1B2
S113005015C114C143C112C111C110C10FC10EC1D8
S11300600DC10CC10BC10AC109C108C107C106C138
S113007005C104C133C102C101C100C1FFC0FEC03A
S1130080FDC0FCC0FBC0FAC0F9C0F8C0F7C0F6C0A0
S1130090F5C0F4C03AC1F2C0F1C0F0C0EFC0EEC088
S11300A0EDC0ECC036C1EAC0E9C0E8C0E7C0E6C0B4
S11300B0E5C0E4C0E3C0E2C0E1C0E0C0DFC0DEC030
S11300C0DDC0DCC034C1DAC0D9C0D8C0D7C0D6C006
S11300D0D5C0D4C0EAC011241FBECFEFD2E0DEBF2A
S11300E0CDBF11E0A0E0B1E0E6EFF4E002C005907E
S11300F00D92A230B107D9F721E0A2E0B1E001C02E
S11301001D92A336B207E1F75CD1F3C179CF41E088
S113011060E070E080E82AD10000089542E067E0E2
S113012071E080E834D1E7E0F1E0808190E0982F3D
S113013088272181822B08951F920F920FB60F9268
S113014011248F939F938091C6008093040195B1ED
S113015084E0892785B981E0809302019F918F9182
S11301600F900FBE0F901F9018959091C00095FFAF
S1130170FCCF8093C6008091C00085FFFCCF08951A
S1130180FC012081222371F031969091C00095FFEB
S1130190FCCF2093C6009091C00095FFFCCF219125
S11301A02111F3CF08959C01C901F901449144231D
S11301B099F02F5F3F4FFC0184919091C00095FF0F
S11301C0FCCF8093C6009091C00095FFFCCFC9017D
S11301D0F90144914111EDCF0895E1ECF0E0808103
S11301E088698083E2ECF0E08081866080831092ED
S11301F0C50083E38093C400089580E89EE302C0B1
S1130200019739F02091C00027FFFACF8091C600F2
S1130210089580E00895FC01CB01880F892F881F81
S1130220990B9195413089F49C01220F331F220FC1
S1130230331F220F331F280F391FADECBCEC1AD12A
S1130240969587959695879580964AE0BF011EC13D
S11302501F920F920FB60F9211242F933F938F93F7
S11302609F93AF93BF93EF93FF93E091B9008E2FC9
S113027090E0FC013897E135F105A0F08091B900D8
S113028080935E0184E08093BC00FF91EF91BF9165
S1130290AF919F918F913F912F910F900FBE0F902F
S11302A01F901895E65EFF4F099480910301E09139
S11302B05F01F0916001E80FF11D8091BB00808324
S11302C084E98093BC00E1CF809161018093BB00FD
S11302D01092030185E88093BC00D7CF809103017D
S11302E090916201891760F7E0915F01F0916001DC
S11302F091E0980F90930301E80FF11D80818093A2
S1130300BB0085E88093BC00C0CF85EA8093BC0025
S1130310BCCF209103018091620130E090E001970D
S113032028173907DCF485EC8093BC00AECFE0914C
S11303305F01F09160018091030121E0280F209377
S11303400301E80FF11D8091BB008083809162015D
S113035030E090E00197281739072CF385E8809363
S1130360BC0093CF8091BC00817008959091BC0033
S113037090FDFCCF8E7F8093610170936001609348
S11303805F014093620185EA8093BC0008959091D7
S1130390BC0090FDFCCF816080936101709360018B
S11303A060935F014093620185EA8093BC000895E5
S11303B08FEF8093BB001092B9008CE08093B8005B
S11303C00895F6DF41E060E070E080E8CFDF0000F0
S11303D080E287B902DF789484B1866084B985B1FC
S11303E0866085B9C1E007C0863409F43DC08091B8
S11303F00101813069F0809104018334A9F7C0932D
S113040001012D9A1092000180910101813099F728
S1130410D091000142E067E071E080E8B8DF6091CC
S1130420070170E0762F662780910801682B4D2F15
S113043085E091E0F0DE8091C00085FFFCCF8091E3
S113044005018093C60000008091C00085FFFCCFA9
S1130450809106018093C60000008091C00085FF52
S1130460FCCF10920101C7CFC09301012D9AC09314
S11304700001BDCFA29FB001B39FC001A39F01D0D3
S1130480B29F700D811D1124911D0895BB274A3020
S113049031F4992322F4BDE2909581959F4F01C0D8
S11304A0BB27FB015527AA27880F991FAA1FA4174A
S11304B010F0A41B83955051B9F7A05DAA3308F03E
S11304C0A95DA193009779F7B111B1931192CB0172
S11304D000C0DC01FC01672F71917723E1F73297AB
S11304E004C07C916D9370836291AE17BF07C8F30B
S10904F00895F894FFCF0B
S10504F60101FE
S9030000FC
