:100000000C9446000C9458000C9458000C94580022
:100010000C9458000C9458000C9458000C94580000
:100020000C9458000C9458000C9458000C945800F0
:100030000C9458000C9458000C9458000C945800E0
:100040000C9458000C9458000C9458000C945800D0
:100050000C9458000C9458000C9458000C945800C0
:100060000C9458000C9458000C9458000C945800B0
:100070000C9458000C9458000C9458000C945800A0
:100080000C9458000C9458000C94580011241FBE76
:10009000CFEFD0E1DEBFCDBF21E0A0E0B1E001C0F5
:1000A0001D92A230B207E1F70E9471000C94A800E3
:1000B0000C94000040B32091000130910101220F07
:1000C000331F306E842F817090E0282B392B3093B2
:1000D00001012093000181E02115304F09F080E0FB
:1000E00008958FEF87BB20E0EDEC30B380910001E5
:1000F00090910101880F991F906E632F617070E0DD
:10010000862B972B90930101809300018115904FCE
:1001100009F42F5F8FE39FE10197F1F700C0000022
:10012000243691F02E9F812D1124869586958695F3
:1001300090E1899FA0011124922F3AE0839F9019AA
:100140001124492B48BBD1CF40E020E048BBCDCFA4
:04015000F894FFCF51
:00000001FF
