S0100000746573746C6564312E73726563EE
S11300000C9446000C9450000C9450000C94500036
S11300100C9450000C9450000C9450000C9450001C
S11300200C9450000C9450000C9450000C9450000C
S11300300C9450000C9450000C9450000C945000FC
S11300400C9450000C9450000C9450000C945000EC
S11300500C9450000C9450000C9450000C945000DC
S11300600C9450000C9450000C9450000C945000CC
S11300700C9450000C9450000C9450000C945000BC
S11300800C9450000C9450000C94500011241FBE8A
S1130090CFEFD0E1DEBFCDBF0E9452000C946600CA
S11300A00C9400008FEF8ABB90EF97BB11BA82BB10
S11300B08BBB18BA2FEF33ED90E3215030409040C2
S11300C0E1F700C0000081508BBBF3CFF894FFCF61
S9030000FC
