S00D0000726164696F2E7372656308
S11300000C9497000C94B6000C94B6000C94B600B3
S11300100C94B6000C94B6000C94B6000C94B60084
S11300200C94B8000C94B6000C94B6000C94B60072
S11300300C94B6000C94B6000C94B6000C94B60064
S11300400C94B6000C94B6000C94B6000C94B60054
S11300500C94B6000C94B6000C94B6000C94B60044
S11300600C94B6000C94B6000C94B6000C94B60034
S11300700C94B6000C94B6000C94B6000C94B60024
S11300800C94B6000C9482050C94B600C3059A0532
S11300909A059A059A059A059A059A05C3059A053B
S11300A09A059A059A059A059A059A05CD059A0521
S11300B09A059A059A059A059A059A059A059A0544
S11300C09A059A059A059A059A059A05CD059A0501
S11300D09A059A059A059A059A059A059A059A0524
S11300E09A059A059A059A059A059A05E4059A05CA
S11300F09A059A059A059A059A059A05E8059A05B6
S11301009A059A059A059A059A059A059A059A05F3
S11301109A059A059A059A059A059A05F6059A0587
S11301209A059A059A059A059A059A05B405112423
S11301301FBECFEFD0E1DEBFCDBF11E0A0E0B1E044
S1130140E0EFF2E100E00BBF02C007900D92A23095
S1130150B107D9F722E0A2E0B1E001C01D92AD31B0
S1130160B207E1F70E9468080C9476090C94000029
S11301701F920F920FB60F9211248F9381E08093F8
S11301800D028F910F900FBE0F901F90189591E064
S1130190811101C090E09FB9779BFECF6FB9779B27
S11301A0FECF80916200886080936200809162003B
S11301B0877F80936200089520910501820F911D2D
S11301C0FC01808181111FC081E08093040181E0E2
S11301D08FB9779BFECF80E28FB9779BFECF80915A
S11301E0620088608093620080916200877F8093C0
S11301F06200809105018F5F80930501803149F190
S1130200803269F00895909104019111E0CF91E05A
S11302109FB9779BFECF8FB9779BFECFE0CF85ED5B
S11302208A95F1F700001FB8779BFECF80E88FB95D
S1130230779BFECF809162008860809362008091FA
S11302406200877F8093620010920401109205017E
S11302500895F5EDFA95F1F700001FB8779BFECFEE
S113026080EC8FB9779BFECF809162008860809389
S1130270620080916200877F809362000895660F18
S1130280660F660F605C1FB8779BFECF6FB9779BD4
S1130290FECF2091620028602093620020916200CA
S11302A0277F2093620025ED2A95F1F70000FC01D9
S11302B09C01285F3F4F91E081919FB9779BFECFCE
S11302C08FB9779BFECF8091620088608093620033
S11302D080916200877F8093620085ED8A95F1F7B3
S11302E00000E217F30741F7089590E4899F600D39
S11302F01124605C1FB8779BFECF6FB9779BFECF4C
S11303008091620088608093620080916200877FA0
S1130310809362000895811113C081E08FB9779BA7
S1130320FECF80E38FB9779BFECF80916200886017
S11303308093620080916200877F809362000895B9
S11303408436B0F48A3060F591E09FB9779BFECF94
S11303509DEC899F912D11249695969596952AE06A
S1130360929F80191124805D8FB9779BFECFDDCFDA
S113037099E2899F912D112492959F70905D21E0BF
S11303802FB9779BFECF9FB9779BFECF90916200E8
S113039098609093620090916200977F90936200BE
S11303A099E2899F912D112492959F70382F24E60C
S11303B0929F301911242DEC329F912D1124969582
S11303C096959695905D21E02FB9779BFECF9FB9C6
S11303D0779BFECF90916200986090936200909119
S11303E06200977F90936200AFCF87FF0C948B01DC
S11303F091E09FB9779BFECF9DE29FB9779BFECF9B
S11304009091620098609093620090916200977F4F
S11304109093620095ED9A95F1F7000081950C9404
S11304208B011FB8779BFECF8EE08FB9779BFECFF1
S11304308091620088608093620080916200877F6F
S11304408093620008951FB8779BFECF8CE08FB92C
S1130450779BFECF809162008860809362008091D8
S11304606200877F8093620008951FB8779BFECF58
S11304708EE18FB9779BFECF809162008860809374
S1130480620080916200877F8093620008951FB8A4
S1130490779BFECF88E18FB9779BFECF8091620076
S11304A088608093620080916200877F80936200FD
S11304B00895E2E6F0E08081886080838081877F10
S11304C0808308951FB8779BFECF81E08FB9779B17
S11304D0FECF809162008860809362008091620008
S11304E0877F809362008FE19CE10197F1F700C060
S11304F0000008951FB8779BFECF82E08FB9779BE9
S1130500FECF8091620088608093620080916200D7
S1130510877F809362008FE697E10197F1F700C02F
S1130520000008951FB8779BFECF80EC8FB9779BAE
S1130530FECF8091620088608093620080916200A7
S1130540877F8093620008951FB8779BFECF80E871
S11305508FB9779BFECF80916200886080936200A0
S113056080916200877F80936200089590E131E07A
S113057020E23FB9779BFECF2FB9779BFECF8091C6
S1130580620088608093620080916200877F80931C
S1130590620085ED8A95F1F70000915051F70895B6
S11305A091E09FB9779BFECF8FB9779BFECF809167
S11305B0620088608093620080916200877F8093EC
S11305C062000895FC0140E050E060E071E0DF016A
S11305D0A40FB51F8C917FB9779BFECF8FB9779B02
S11305E0FECF9091620098609093620090916200B7
S11305F0977F9093620085ED8A95F1F700006F5F15
S1130600462F50E0DF010D900020E9F79D012E1BDD
S11306103F0B2250310924173507C8F608958FEF90
S113062099EF0197F1F700C0000088E08093610022
S11306301FB8779BFECF80E38FB9779BFECF809165
S1130640620088608093620080916200877F80935B
S113065062008FE59DE60197F1F700C000001FB826
S1130660779BFECF80E38FB9779BFECF80916200AA
S113067088608093620080916200877F809362002B
S11306808FE59DE60197F1F700C000001FB8779B46
S1130690FECF80E38FB9779BFECF809162008860A4
S11306A08093620080916200877F809362008FE56F
S11306B09DE60197F1F700C000001FB8779BFECFBD
S11306C088E38FB9779BFECF809162008860809326
S11306D0620080916200877F809362008FE19EE4D4
S11306E00197F1F700C000001FB8779BFECF88E0A8
S11306F08FB9779BFECF80916200886080936200FF
S113070080916200877F809362008FE19EE401976D
S1130710F1F700C000001FB8779BFECF81E08FB9CE
S1130720779BFECF80916200886080936200809105
S11307306200877F809362008FE19EE40197F1F766
S113074000C000001FB8779BFECF86E08FB9779B6F
S1130750FECF809162008860809362008091620085
S1130760877F809362008FE19EE40197F1F700C0D8
S113077000001FB8779BFECF8CE08FB9779BFECF2C
S11307808091620088608093620080916200877F1C
S1130790809362008FE19EE40197F1F700C00000AE
S11307A008954F925F926F927F928F929F92AF9231
S11307B0BF92CF92DF92EF92FF920F931F93CF934A
S11307C0DF93CDB7DEB769970FB6F894DEBF0FBEDF
S11307D0CDBF142F422E5E2C002379F06B017C01D7
S11307E0CC24F7FCC394DD24EE24FF240C2D6B01F0
S11307F07C0197FDA3C0C701B601442009F496C04B
S11308009E012F5F3F4F5901490166246A94640C8D
S1130810712C3FEF631A730A6A0C7B1C2AE030E0E8
S113082040E050E00E94A408E62F2A8B3B8B4C8BBF
S11308305D8B6A897B898C899D8920E32E0FF40165
S113084021934F016E167F0649F799249394940CD3
S1130850F501E40DF11D2EE220832AE030E040E0B2
S113086050E00E94A408E62F2A8B3B8B4C8B5D8BB7
S11308706E8B7F8B888F998F6A897B898C899D8900
S113088031E0390DD501A90DB11DE05DEC93932E36
S1130890611571058105910501F7112361F051106E
S11308A04BC090E2311738F4F501E30FF11D90834A
S11308B03F5F1313F9CF002331F0F501E30FF11D6E
S11308C09DE290833F5F21E03150F501E30FF11D7C
S11308D090812FB9779BFECF9FB9779BFECF9091E4
S11308E0620098609093620090916200977F909369
S11308F0620085ED8A95F1F700003111E5CF699624
S11309000FB6F894DEBF0FBECDBFDF91CF911F911C
S11309100F91FF90EF90DF90CF90BF90AF909F909A
S11309208F907F906F905F904F900895912C9E01CF
S11309302F5F3F4F590191CF90E3B4CFF094E094EF
S1130940D094C094C11CD11CE11CF11C54CF5F9203
S11309506F927F928F929F92AF92BF92CF92DF92CB
S1130960EF92FF920F931F93CF93DF93CDB7DEB730
S113097061970FB6F894DEBF0FBECDBF5C01962E13
S1130980542E622E8B2C881C8824881C782C9C0165
S113099097FD9DC0552009F48EC08E010F5F1F4F37
S11309A07801CC24CA94C50CD12C8FEFC81AD80A6C
S11309B0C00ED11E6AE070E0C9010E949008462F63
S11309C0242F372F805DF70181937F01EC15FD05FE
S11309D089F7FF24F394F50CF801E50DF11D8EE27F
S11309E0808301C0F92E6AE070E0C9010E9490087A
S11309F0462F242F372F91E09F0DF801EF0DF11DA5
S1130A00805D80832115310569F7611059C0B7FCF9
S1130A1063C09920B1F0682D70E080E2292F30E0A6
S1130A20492D50E0461B570B2417350754F49F5F9C
S1130A30F801E20FF31F8083292F30E024173507D4
S1130A40B4F3772031F0F801E90FF11D8DE28083D2
S1130A509F5F21E09150F801E90FF11D80812FB9CA
S1130A60779BFECF8FB9779BFECF80916200886021
S1130A708093620080916200877F80936200F5ED2D
S1130A80FA95F1F700009111E5CF61960FB6F8944D
S1130A90DEBF0FBECDBFDF91CF911F910F91FF90AD
S1130AA0EF90DF90CF90BF90AF909F908F907F900A
S1130AB06F905F900895F12C8E010F5F1F4F93CFBD
S1130AC0992009F4BECF682D70E080E3A7CF2227D8
S1130AD03327281B390B5ECFF394F394F801E90F05
S1130AE0F11D8DE28083992059F02F2D30E0492D9E
S1130AF050E02417350724F49F2D712C80E297CF02
S1130B009F2DA7CF1F920F920FB60F9211240BB6F1
S1130B100F922F933F938F939F93AF93BF93EF9332
S1130B20FF93E09171008E2F90E0FC013897E1353E
S1130B30F105B0F0809171008093930184E080937B
S1130B407400FF91EF91BF91AF919F918F913F916D
S1130B502F910F900BBE0F900FBE0F901F90189502
S1130B60EA5BFF4F0C94C30880910601E091940165
S1130B70F0919501E80FF11D80917300808384E961
S1130B8080937400DECF809196018093730010925D
S1130B90060185E880937400D4CF8091060190917A
S1130BA09701891760F7E0919401F091950191E024
S1130BB0980F90930601E80FF11D808180937300D4
S1130BC085E880937400BDCF85EA80937400B9CF23
S1130BD0209106018091970130E090E00197281759
S1130BE03907DCF485EC80937400ABCFE091940179
S1130BF0F09195018091060121E0280F20930601D0
S1130C00E80FF11D8091730080838091970130E09B
S1130C1090E00197281739072CF385E88093740036
S1130C2090CF80917400817008959091740090FD2C
S1130C30FCCF8E7F8093960170939501609394010D
S1130C404093970185EA809374000895909174000D
S1130C5090FDFCCF81608093960170939501609321
S1130C6094014093970185EA8093740008958FEF6F
S1130C7080937300109271008CE08093700008954B
S1130C80FC01CB01880F892F881F990B9195413066
S1130C9091F49C01220F331F220F331F220F331FA5
S1130CA0280F391FADECBCEC0E94CC0896958795B3
S1130CB09695879580964AE0BF010C9411095D9B37
S1130CC0FECF8CB95D9BFECF0895FC0190819923E2
S1130CD049F031965D9BFECF9CB95D9BFECF91910F
S1130CE09111F8CF08959C01FC014491442369F0CB
S1130CF00196F90124915D9BFECF2CB95D9BFECF3B
S1130D009C01FC0144914111F3CF08958AB188619B
S1130D108AB9E5E9F0E080818660808310929000D2
S1130D2080E189B9089580E89EE302C0019721F02B
S1130D305F9BFCCF8CB1089580E0089584E180939B
S1130D40EC0141E06CEE71E082E20E9415060E9423
S1130D5011068111FCCF8FEA94E00197F1F700C0EE
S1130D60000041E06EE072E082E20E9426060E94EA
S1130D7011068111FCCF80910E02089580E28093C8
S1130D80EC011092ED01809100019091010190938A
S1130D90EE018093EF011092F00110920D0245E0F4
S1130DA06CEE71E082E20E94150680910D028823A8
S1130DB0E1F3089580E48093EC011092ED018091B9
S1130DC03501909136019093EE018093EF011092DA
S1130DD0F0011092F10110920D0246E06CEE71E008
S1130DE082E20E94150680910D028823E1F30895A2
S1130DF0ECEEF1E080E48083118280915F019091B8
S1130E00600192838383148281E0858346E0BF017D
S1130E1082E20E9415062FEF87EE93E02150804076
S1130E209040E1F700C00000089580910201909184
S1130E3003018130910551F100F1029741F4609171
S1130E405F017091600181E691E00E946109609107
S1130E50340187E091E00E94540981E18093EC0120
S1130E6041E06CEE71E082E20E94150687ED94E0A9
S1130E700197F1F700C0000008956091000170919E
S1130E80010188E091E00E946109E1CF60913501A0
S1130E907091360182E391E00E946109D8CF83E228
S1130EA08093EC0181E08093ED0142E06CEE71E00F
S1130EB082E20E9415060E9411068111FCCF8FEA7E
S1130EC094E00197F1F700C0000048E065EF71E09D
S1130ED082E20E9426060E9411068111FCCF089529
S1130EE082E28093EC0181E08093ED0142E06CEEBC
S1130EF071E082E20E9415060E9411068111FCCF66
S1130F008FEA94E00197F1F700C0000048E065EF34
S1130F1071E082E20E9426060E9411068111FCCF34
S1130F20089582E48093EC0181E08093ED0142E036
S1130F306CEE71E082E20E9415060E941106811196
S1130F40FCCF8FEA94E00197F1F700C0000048E07D
S1130F5065EF71E082E20C94260683E48093EC0151
S1130F6081E08093ED0142E06CEE71E082E20E9448
S1130F7015060E9411068111FCCF8FEA94E00197B7
S1130F80F1F700C0000048E065EF71E082E20C94E4
S1130F902606ECEEF1E022E1208311829283838322
S1130FA07483658346E0BF0182E20E9415068FE3E5
S1130FB09CE90197F1F700C00000089588E091E0F2
S1130FC00E944E09909301018093000187E091E013
S1130FD00E94460980933401ECEEF1E081E08083C5
S1130FE080E5818385E0828343E0BF0182E20E9441
S1130FF015062FEF8BED95E0215080409040E1F7EE
S113100000C0000061E070E081E090E00C94C9074A
S113101082E391E00E944E0990933601809335015A
S113102087E091E00E94460980933401ECEEF1E000
S113103081E0808381E5818385E0828343E0BF0191
S113104082E20E9415062FEF8BED95E0215080403F
S11310509040E1F700C0000061E070E081E090E0C2
S11310600C94C90781E691E00E944E0990936001B7
S113107080935F0187E091E00E94460980933401E8
S1131080ECEEF1E081E0808381E5818385E0828379
S113109043E0BF0182E20E9415062FEF8BED95E03D
S11310A0215080409040E1F700C0000060E070E013
S11310B082E093E30E94C90761E071E082E091E37A
S11310C00E94C90761E070E081E090E00C94C907D8
S11310D00E9437061B9A139A129A1A9A8AB7816841
S11310E08ABF89B7806889BF1F98179A1A9A8FE1B7
S11310F093E00197F1F700C000001A9890EA9A95DE
S1131100F1F7179878940E94DE0786E899E29093A5
S11311100101809300010E94BE0680E090E00895E2
S113112097FB072E16F4009407D077FD09D00E9490
S1131130DB0807FC05D03EF4909581959F4F0895F8
S1131140709561957F4F0895052E97FB1EF40094CA
S11311500E94BB0857FD07D00E94EF0807FC03D08C
S11311604EF40C94BB0850954095309521953F4F13
S11311704F4F5F4F089590958095709561957F4F7F
S11311808F4F9F4F0895EE0FFF1F0024001C0BBECE
S11311900790F691E02D0994A29FB001B39FC0017E
S11311A0A39F700D811D1124911DB29F700D811D8F
S11311B01124911D0895AA1BBB1B51E107C0AA1F4E
S11311C0BB1FA617B70710F0A61BB70B881F991FE4
S11311D05A95A9F780959095BC01CD010895A1E297
S11311E01A2EAA1BBB1BFD010DC0AA1FBB1FEE1F9D
S11311F0FF1FA217B307E407F50720F0A21BB30BE8
S1131200E40BF50B661F771F881F991F1A9469F763
S113121060957095809590959B01AC01BD01CF01BF
S11312200895BB274A3031F4992322F4BDE2909506
S113123081959F4F0C941D09BB27FB015527AA27B5
S1131240880F991FAA1FA41710F0A41B839550514F
S1131250B9F7A05DAA3308F0A95DA193009779F7C7
S1131260B111B1931192CB010C943609DC01FC014C
S1131270672F71917723E1F7329704C07C916D93C6
S113128070836291AE17BF07C8F30895E199FECF4A
S11312909FBB8EBBE09A99278DB30895A8E1B0E077
S11312A042E050E00C946809262FE199FECF9FBBE1
S11312B08EBB2DBB0FB6F894E29AE19A0FBE01964D
S11312C008950E945409272F0C945509DC01CB0181
S11312D0FC01E199FECF06C0FFBBEEBBE09A31965C
S11312E00DB20D9241505040B8F70895F894FFCFD5
S10512F0862949
S9030000FC
