S01100006C6162365F636F64652E73726563B4
S11300000C9497000C94B6000C94B6000C94B600B3
S11300100C94B6000C94B6000C94B6000C94B60084
S11300200C94D0060C94B6000C94B6000C94B60054
S11300300C94B6000C94B6000C9499060C94B6007B
S11300400C9485060C94B6000C94B6000C94B6007F
S11300500C94B6000C94BE060C94B6000C94B60036
S11300600C94B6000C94B6000C94B6000C94B60034
S11300700C94B6000C94B6000C94B6000C94B60024
S11300800C94B6000C949A0B0C94B600DB0BB20BD8
S1130090B20BB20BB20BB20BB20BB20BDB0BB20B4B
S11300A0B20BB20BB20BB20BB20BB20BE50BB20B31
S11300B0B20BB20BB20BB20BB20BB20BB20BB20B54
S11300C0B20BB20BB20BB20BB20BB20BE50BB20B11
S11300D0B20BB20BB20BB20BB20BB20BB20BB20B34
S11300E0B20BB20BB20BB20BB20BB20BFC0BB20BDA
S11300F0B20BB20BB20BB20BB20BB20B000CB20BC5
S1130100B20BB20BB20BB20BB20BB20BB20BB20B03
S1130110B20BB20BB20BB20BB20BB20B0E0CB20B96
S1130120B20BB20BB20BB20BB20BB20BCC0B112451
S11301301FBECFEFD0E1DEBFCDBF11E0A0E0B1E044
S1130140EAEBF1E200E00BBF02C007900D92AE347F
S1130150B107D9F722E0AEE4B1E001C01D92AF359A
S1130160B207E1F70E94800E0C94DB100C9400009F
S11301708CE280935D0189E080935C0182E180934D
S11301805B0180915B018D3018F081E08093670101
S1130190089587B3876087BB8FEF82B981BB80E501
S11301A08DB981E08EB980B7886080BF87B78160E0
S11301B087BF83B7816083BF85B5896685BD80E4C9
S11301C09CE99DBD8CBD87B7846087BF1FBC8EB57D
S11301D081608EBDEBE8F0E0808181688083EAE88D
S11301E0F0E080818A60808387E687B98FE886B9EA
S11301F008950F931F93CF93DF93C2E0D0E006EBF3
S113020016E2129A1A9A1F98179A1A9A8FE193E093
S11302100197F1F700C000001A9890EA9A95F1F757
S113022017980E94F60D10930101009300010E949B
S1130230D60C219731F7DF91CF911F910F9108953B
S113024041E060E070E080E90E942D0C0000089518
S1130250482FE82FF0E099B3EE0FFF1FE059FE4F4F
S113026020813181220F331F306E892F90E002C02C
S1130270959587954A95E2F78170992741E08427FF
S1130280282B392B3183208381E02115304F09F04D
S113029080E008951F93CF93DF93FC01803127E220
S11302A0920708F461C09C01329522952F70232790
S11302B03F702327A7E4B3E00E943110AC01EC01A6
S11302C0D695C795D695C795D695C79520E137E2BB
S11302D0C29FC001C39F900DD29F900D1124EF01C6
S11302E0C81BD90B9E01ADECBCEC0E943110969555
S11302F0879596958795969587951C2F2AE0829FDA
S1130300101911249E013695279536952795ABE74C
S1130310B4E10E94311096958795E82F9E01369599
S113032027953695279536952795A5ECB0E20E943A
S11303303110929582958F7089279F7089275695E1
S1130340479556954795569547951093A001E09388
S1130350A1019FEF9093A2018093A3014093A40174
S1130360DF91CF911F9108959C013695279536957D
S1130370279536952795A5ECB0E20E943110AC0183
S1130380EC01D295C295CF70CD27DF70CD2728EE32
S113039033E0C29FC001C39F900DD29F900D1124E2
S11303A0EF01C81BD90B9E01ADECBCEC0E943110CF
S11303B09695879596958795969587951C2F2AE00F
S11303C0829F101911249F013695279536952795FC
S11303D0ABE7B4E10E9431109695879564E6689F77
S11303E09001699F300D1124CF01821B930B9C0156
S11303F0ADECBCEC0E943110969587959695879547
S113040096958795E82F9E013695279536952795DD
S1130410ABE7B4E10E9431109695879552954295C9
S11304204F7045275F70452790CF9DEC699F212D24
S11304301124322F3695369536954AE0349F60194B
S11304401124362F269526952695899F912D1124C2
S1130450969596959695482F5AE0959F40191124A4
S11304608A3030F491E0809166018130A9F0919551
S113047080915D0180FF0CC08FEF8093A2013093C7
S1130480A0012093A1014093A3019093A401089596
S113049080E18093A201F3CF90E0E9CF813130F481
S11304A0E82FF0E0EA5FFE4F808108958FEF089512
S11304B050916B0140916A01282F237020936B01A6
S11304C08C7090E0959587959595879580936A01B2
S11304D0833009F44BC040916901233049F13091D4
S11304E06201413081F0313009F0089580915A0160
S11304F08093560180915901809355018091670141
S11305008093580108958091590180935B018091F3
S11305105A0180935C01E7CF809100019091010121
S11305200A9690930101809300012330F1F640E094
S1130530513009F46EC0523091F6413009F4D8C0FC
S113054030916201313009F4A1C08091860090910C
S113055087000A9709F4D3C08091860090918700A0
S11305600A979093870080938600B9CF413049F170
S1130570423009F0B0CF40916901411119C0309166
S11305806201311115C030916401313089F4309128
S11305905001313009F4D4C023B530E026303105A0
S11305A00CF4C4C083B5855083BD20916B0193CFF7
S11305B080915A01882309F455C0815080935A01CF
S11305C08CCF4091690141111AC0309162013111FF
S11305D016C080916401813091F480915001813082
S11305E009F49ACF83B590E0893F91050CF49CC03F
S11305F08AEF83BD20916B01409169016ECF809198
S11306005A01682F70E06B337105E4F010925A01BF
S113061064CF413009F465C030916201313031F169
S113062080918600909187000A968F3F910571F022
S113063068F08FEF90E0909387008093860030916C
S113064062014FCF8F5F80935A0147CF809186001C
S1130650909187000A96909387008093860030914A
S113066062013FCF8BE380935A0137CF80916601BB
S113067081111BC080915901682F70E06C307105A5
S11306800CF444C081E0809359012BCF8091660122
S113069081111AC080915901682F70E06230710590
S11306A0CCF18150809359011CCF813009F0B8CF2F
S11306B080915901282F30E0273131057CF11092C7
S11306C05901309162010DCF813009F03ECF809104
S11306D05901882379F18150809359013091620145
S11306E000CF809166018111E0CF30916201C2CFC9
S11306F0809166018111E8CF30916201CBCF1092D5
S113070087001092860030916201EBCE8F5F809358
S11307105901E7CE8CE080935901E3CE8F5F80933B
S1130720590130916201DDCE83B58B5F83BD209189
S11307306B01D1CE87E18093590130916201D1CE12
S113074080910001909101010A9790930101809397
S11307500001EBCEAF92BF92CF92DF92EF92FF9265
S11307600F931F93CF93DF931ABA2FEF2BBB20E77E
S113077028BB2AE12A95F1F700C039B3C0907E0165
S1130780D0907F01CC0CDD1C60EED62A232F30E004
S1130790220F232F221F330B61E026272C293D290A
S11307A030937F0120937E012115304F31F4309135
S11307B0690121E023272093690129B326FBEE2454
S11307C0E0F8F12C21E0E22620917C0130917D01BA
S11307D0220F331F306EE22AF32AF0927D01E09259
S11307E07C01E11430EFF30609F43BC129B325FB86
S11307F0002700F910E061E0062720917A0130918A
S11308007B01220F331F306E022B132B10937B01BD
S113081000937A010115104F09F414C129B32295EC
S11308202170C22F30E0D32F61E0C62720917801D8
S113083030917901220F331F306EC22BD32BD0930A
S11308407901C0937801C115D04F31F43091620120
S113085021E023272093620129B323FBAA27A0F9CF
S1130860B0E031E0A3272091760130917701220F87
S1130870331F306EA22BB32BB0937701A093760174
S1130880A115B04F41F42091600131E0232720935A
S113089060013093650129B322FBEE27E0F9F0E013
S11308A021E0E2272091740130917501220F331F5A
S11308B0306EE22BF32BF0937501E0937401E11594
S11308C0F04F59F43091640121E0322730936401F0
S11308D03091020123272093020129B321FB8827A9
S11308E080F990E061E086272091720130917301D4
S11308F0220F331F306E822B932B909373018093BE
S11309007201811520EF920709F48EC029B321FBEF
S1130910AA24A0F8B12CB50131E06327706E880FCA
S1130920991F862B972B90937301809372018115E5
S1130930904F41F48091510191E0892780935101B6
S113094090934F0129B38091700190917101880FA8
S1130950991F906E2095422F417050E0842B952B67
S11309609093710180937001811520EF920709F42F
S113097051C029B3217041E0242730E0306E880F44
S1130980991F822B932B9093710180937001811591
S1130990904F51F480915001982F942790935001D7
S11309A040934F0180934E0180E688BB000012BA49
S11309B080E483B900002091690140E8249F9001FC
S11309C011249091660160E4969FC0011124282BA4
S11309D09091620130E2939FC0011124822B909187
S11309E06401990F990F892B8FB9779BFECFC09A19
S11309F0C0988FB10E94580284E082BB13B8DF9183
S1130A00CF911F910F91FF90EF90DF90CF90BF9007
S1130A10AF90089520916301213009F0AACF10927C
S1130A20630120936501C0CF20916301213009F057
S1130A306DCF1092630120935401109253012093BF
S1130A40650180CF20916901213009F0E7CE309112
S1130A5066013111E3CE30916701232720936701AA
S1130A60DDCE3091660121E0232720936601309189
S1130A7067013130A9F02111B9CE20915B012C30EE
S1130A8008F4B4CE21E02093670120915B012C305F
S1130A9009F4ACCE20915B012C5020935B01A6CECF
S1130AA0213049F71092670120915B012C3009F441
S1130AB09DCE20915B01245F20935B0197CE8091B2
S1130AC05E01803809F482C08091530190915D01E8
S1130AD09C3309F46FC090915C019C3309F45EC0AF
S1130AE090915B019D30B0F090916601911112C01C
S1130AF090915B019C5090935B0120915C019091DB
S1130B0056012917D1F010926301109261018A30C5
S1130B1099F1089590915B01983178F39091660171
S1130B20913059F790915B01985190935B0120911A
S1130B305C01909156012913E6CF20915B019091BD
S1130B4055012913E0CF2091580190916701291391
S1130B50DACF909162019111D6CF909161019111F8
S1130B60D6CF90916001913091F690936301909368
S1130B70610190936501CBCF81E080936301109272
S1130B805401109253018093650180915A0180931E
S1130B9056018091590180935501089590915B010C
S1130BA09F5F90935B0190915B019C3079F110926F
S1130BB05C0196CF90916301913029F190915C0191
S1130BC09F5F90935C0110925D0185CF80915D01E0
S1130BD08F5F80935D0110925E019091520181E0DC
S1130BE098279093520190910501892780930501DC
S1130BF080915401813009F067CF809153018F5F58
S1130C008093530163CF90936501D8CF909166018F
S1130C109111CDCF2091670191E0922790936701C4
S1130C20C6CF0E947A080E949208809163018130A5
S1130C30C1F0809154018130C9F080916001882312
S1130C4021F0813041F00C94920888E291E00E94F6
S1130C50FA080C94920886E391E00E94FA080C9436
S1130C60920887E191E00E94FA08EDCF80E291E0DA
S1130C700E94FA08E8CF0E94AA088091030190918B
S1130C8004010C94FA0842E06CE971E080E90E94E6
S1130C903E0CECE9F1E0808190E0982F88272181D7
S1130CA0822B0895CF93DF9380910201813019F153
S1130CB083E40E94770CC0910301D091040183E482
S1130CC08B8700000E94AB0C89878FE891E0019725
S1130CD0F1F700C00000C0910301D09104010E940B
S1130CE0AB0C8A878FE891E00197F1F700C0000010
S1130CF0DF91CF91089586E40E94770CC09103019F
S1130D00D091040186E48B87DCCF1F920F920FB63B
S1130D100F9211248F9381E08093680180915E018A
S1130D208F5F80935E018F910F900FBE0F901F9085
S1130D3018951F920F920FB60F9211248F939F93C1
S1130D4080916301813039F09F918F910F900FBE94
S1130D500F901F901895809151018111F5CF95B393
S1130D6088E0892785BB80E49CE99DBD8CBD9F916B
S1130D708F910F900FBE0F901F9018951F920F9296
S1130D800FB60F9211248F9380916401811102C0D8
S1130D9085B183BD8F910F900FBE0F901F90189552
S1130DA01F920F920FB60F9211248F9381E08093BC
S1130DB04F028F910F900FBE0F901F90189591E0E6
S1130DC0811101C090E09FB9779BFECF6FB9779BEB
S1130DD0FECF8091620088608093620080916200FF
S1130DE0877F80936200089520918101820F911D75
S1130DF0FC01808181111FC081E08093800181E02A
S1130E008FB9779BFECF80E28FB9779BFECF80911D
S1130E10620088608093620080916200877F809383
S1130E206200809181018F5F80938101803149F15B
S1130E30803269F00895909180019111E0CF91E0A2
S1130E409FB9779BFECF8FB9779BFECFE0CF85ED1F
S1130E508A95F1F700001FB8779BFECF80E88FB921
S1130E60779BFECF809162008860809362008091BE
S1130E706200877F8093620010928001109281014A
S1130E800895F5EDFA95F1F700001FB8779BFECFB2
S1130E9080EC8FB9779BFECF80916200886080934D
S1130EA0620080916200877F809362000895660FDC
S1130EB0660F660F605C1FB8779BFECF6FB9779B98
S1130EC0FECF20916200286020936200209162008E
S1130ED0277F2093620025ED2A95F1F70000FC019D
S1130EE09C01285F3F4F91E081919FB9779BFECF92
S1130EF08FB9779BFECF80916200886080936200F7
S1130F0080916200877F8093620085ED8A95F1F776
S1130F100000E217F30741F7089590E4899F600DFC
S1130F201124605C1FB8779BFECF6FB9779BFECF0F
S1130F308091620088608093620080916200877F64
S1130F40809362000895811113C081E08FB9779B6B
S1130F50FECF80E38FB9779BFECF809162008860DB
S1130F608093620080916200877F8093620008957D
S1130F708436B0F48A3060F591E09FB9779BFECF58
S1130F809DEC899F912D11249695969596952AE02E
S1130F90929F80191124805D8FB9779BFECFDDCF9E
S1130FA099E2899F912D112492959F70905D21E083
S1130FB02FB9779BFECF9FB9779BFECF90916200AC
S1130FC098609093620090916200977F9093620082
S1130FD099E2899F912D112492959F70382F24E6D0
S1130FE0929F301911242DEC329F912D1124969546
S1130FF096959695905D21E02FB9779BFECF9FB98A
S1131000779BFECF909162009860909362009091DC
S11310106200977F90936200AFCF87FF0C94A30781
S113102091E09FB9779BFECF9DE29FB9779BFECF5E
S11310309091620098609093620090916200977F13
S11310409093620095ED9A95F1F7000081950C94C8
S1131050A3071FB8779BFECF8EE08FB9779BFECF97
S11310608091620088608093620080916200877F33
S11310708093620008951FB8779BFECF8CE08FB9F0
S1131080779BFECF8091620088608093620080919C
S11310906200877F8093620008951FB8779BFECF1C
S11310A08EE18FB9779BFECF809162008860809338
S11310B0620080916200877F8093620008951FB868
S11310C0779BFECF88E18FB9779BFECF809162003A
S11310D088608093620080916200877F80936200C1
S11310E00895E2E6F0E08081886080838081877FD4
S11310F0808308951FB8779BFECF81E08FB9779BDB
S1131100FECF8091620088608093620080916200CB
S1131110877F809362008FE19CE10197F1F700C023
S1131120000008951FB8779BFECF82E08FB9779BAC
S1131130FECF80916200886080936200809162009B
S1131140877F809362008FE697E10197F1F700C0F3
S1131150000008951FB8779BFECF80EC8FB9779B72
S1131160FECF80916200886080936200809162006B
S1131170877F8093620008951FB8779BFECF80E835
S11311808FB9779BFECF8091620088608093620064
S113119080916200877F80936200089590E131E03E
S11311A020E23FB9779BFECF2FB9779BFECF80918A
S11311B0620088608093620080916200877F8093E0
S11311C0620085ED8A95F1F70000915051F708957A
S11311D091E09FB9779BFECF8FB9779BFECF80912B
S11311E0620088608093620080916200877F8093B0
S11311F062000895FC0140E050E060E071E0DF012E
S1131200A40FB51F8C917FB9779BFECF8FB9779BC5
S1131210FECF90916200986090936200909162007A
S1131220977F9093620085ED8A95F1F700006F5FD8
S1131230462F50E0DF010D900020E9F79D012E1BA1
S11312403F0B2250310924173507C8F608958FEF54
S113125099EF0197F1F700C0000088E080936100E6
S11312601FB8779BFECF80E38FB9779BFECF809129
S1131270620088608093620080916200877F80931F
S113128062008FE59DE60197F1F700C000001FB8EA
S1131290779BFECF80E38FB9779BFECF809162006E
S11312A088608093620080916200877F80936200EF
S11312B08FE59DE60197F1F700C000001FB8779B0A
S11312C0FECF80E38FB9779BFECF80916200886068
S11312D08093620080916200877F809362008FE533
S11312E09DE60197F1F700C000001FB8779BFECF81
S11312F088E38FB9779BFECF8091620088608093EA
S1131300620080916200877F809362008FE19EE497
S11313100197F1F700C000001FB8779BFECF88E06B
S11313208FB9779BFECF80916200886080936200C2
S113133080916200877F809362008FE19EE4019731
S1131340F1F700C000001FB8779BFECF81E08FB992
S1131350779BFECF809162008860809362008091C9
S11313606200877F809362008FE19EE40197F1F72A
S113137000C000001FB8779BFECF86E08FB9779B33
S1131380FECF809162008860809362008091620049
S1131390877F809362008FE19EE40197F1F700C09C
S11313A000001FB8779BFECF8CE08FB9779BFECFF0
S11313B08091620088608093620080916200877FE0
S11313C0809362008FE19EE40197F1F700C0000072
S11313D008954F925F926F927F928F929F92AF92F5
S11313E0BF92CF92DF92EF92FF920F931F93CF930E
S11313F0DF93CDB7DEB769970FB6F894DEBF0FBEA3
S1131400CDBF142F422E5E2C002379F06B017C019A
S1131410CC24F7FCC394DD24EE24FF240C2D6B01B3
S11314207C0197FDA3C0C701B601442009F496C00E
S11314309E012F5F3F4F5901490166246A94640C51
S1131440712C3FEF631A730A6A0C7B1C2AE030E0AC
S113145040E050E00E940910E62F2A8B3B8B4C8B16
S11314605D8B6A897B898C899D8920E32E0FF40129
S113147021934F016E167F0649F799249394940C97
S1131480F501E40DF11D2EE220832AE030E040E076
S113149050E00E940910E62F2A8B3B8B4C8B5D8B0E
S11314A06E8B7F8B888F998F6A897B898C899D89C4
S11314B031E0390DD501A90DB11DE05DEC93932EFA
S11314C0611571058105910501F7112361F0511032
S11314D04BC090E2311738F4F501E30FF11D90830E
S11314E03F5F1313F9CF002331F0F501E30FF11D32
S11314F09DE290833F5F21E03150F501E30FF11D40
S113150090812FB9779BFECF9FB9779BFECF9091A7
S1131510620098609093620090916200977F90932C
S1131520620085ED8A95F1F700003111E5CF6996E7
S11315300FB6F894DEBF0FBECDBFDF91CF911F91E0
S11315400F91FF90EF90DF90CF90BF90AF909F905E
S11315508F907F906F905F904F900895912C9E0193
S11315602F5F3F4F590191CF90E3B4CFF094E094B3
S1131570D094C094C11CD11CE11CF11C54CF5F92C7
S11315806F927F928F929F92AF92BF92CF92DF928F
S1131590EF92FF920F931F93CF93DF93CDB7DEB7F4
S11315A061970FB6F894DEBF0FBECDBF5C01962ED7
S11315B0542E622E8B2C881C8824881C782C9C0129
S11315C097FD9DC0552009F48EC08E010F5F1F4FFB
S11315D07801CC24CA94C50CD12C8FEFC81AD80A30
S11315E0C00ED11E6AE070E0C9010E94F50F462FBB
S11315F0242F372F805DF70181937F01EC15FD05C2
S113160089F7FF24F394F50CF801E50DF11D8EE242
S1131610808301C0F92E6AE070E0C9010E94F50FD1
S1131620462F242F372F91E09F0DF801EF0DF11D68
S1131630805D80832115310569F7611059C0B7FCBD
S113164063C09920B1F0682D70E080E2292F30E06A
S1131650492D50E0461B570B2417350754F49F5F60
S1131660F801E20FF31F8083292F30E02417350798
S1131670B4F3772031F0F801E90FF11D8DE2808396
S11316809F5F21E09150F801E90FF11D80812FB98E
S1131690779BFECF8FB9779BFECF809162008860E5
S11316A08093620080916200877F80936200F5EDF1
S11316B0FA95F1F700009111E5CF61960FB6F89411
S11316C0DEBF0FBECDBFDF91CF911F910F91FF9071
S11316D0EF90DF90CF90BF90AF909F908F907F90CE
S11316E06F905F900895F12C8E010F5F1F4F93CF81
S11316F0992009F4BECF682D70E080E3A7CF22279C
S11317003327281B390B5ECFF394F394F801E90FC8
S1131710F11D8DE28083992059F02F2D30E0492D61
S113172050E02417350724F49F2D712C80E297CFC5
S11317309F2DA7CF1F920F920FB60F9211240BB6B5
S11317400F922F933F938F939F93AF93BF93EF93F6
S1131750FF93E09171008E2F90E0FC013897E13502
S1131760F105B0F0809171008093D50184E08093FD
S11317707400FF91EF91BF91AF919F918F913F9131
S11317802F910F900BBE0F900FBE0F901F901895C6
S1131790EA5BFF4F0C94281080918201E091D601FE
S11317A0F091D701E80FF11D80917300808384E9E3
S11317B080937400DECF8091D801809373001092DF
S11317C0820185E880937400D4CF80918201909146
S11317D0D901891760F7E091D601F091D70191E022
S11317E0980F90938201E80FF11D8081809373001C
S11317F085E880937400BDCF85EA80937400B9CFE7
S1131800209182018091D90130E090E0019728175E
S11318103907DCF485EC80937400ABCFE091D601FA
S1131820F091D7018091820121E0280F2093820159
S1131830E80FF11D8091730080838091D90130E01D
S113184090E00197281739072CF385E880937400FA
S113185090CF80917400817008959091740090FDF0
S1131860FCCF8E7F8093D8017093D7016093D6010B
S11318704093D90185EA809374000895909174008F
S113188090FDFCCF81608093D8017093D701609361
S1131890D6014093D90185EA8093740008958FEFAF
S11318A080937300109271008CE08093700008950F
S11318B0FC01CB01880F892F881F990B919541302A
S11318C091F49C01220F331F220F331F220F331F69
S11318D0280F391FADECBCEC0E943110969587950A
S11318E09695879580964AE0BF010C9476105D9B8F
S11318F0FECF8CB95D9BFECF0895FC0190819923A6
S113190049F031965D9BFECF9CB95D9BFECF9191D2
S11319109111F8CF08959C01FC014491442369F08E
S11319200196F90124915D9BFECF2CB95D9BFECFFE
S11319309C01FC0144914111F3CF08958AB188615F
S11319408AB9E5E9F0E08081866080831092900096
S113195087E689B9089580E89EE302C0019721F0E3
S11319605F9BFCCF8CB1089580E0089584E180935F
S11319702E0241E06EE272E082E20E942D0C0E948F
S1131980290C8111FCCF8FEA94E00197F1F700C094
S1131990000041E060E572E082E20E943E0C0E9499
S11319A0290C8111FCCF80915002089580E280932C
S11319B02E0210922F0280910001909101019093C8
S11319C03002809331021092320210924F0245E0AD
S11319D06EE272E082E20E942D0C80914F02882315
S11319E0E1F3089580E480932E0210922F028091F7
S11319F09501909196019093300280933102109258
S1131A0032021092330210924F0246E06EE272E00C
S1131A1082E20E942D0C80914F028823E1F3089505
S1131A20EEE2F2E080E48083118280919A01909149
S1131A309B0192838383148281E0858346E0BF0106
S1131A4082E20E942D0C2FEF87EE93E0215080401C
S1131A509040E1F700C00000089580916E019091DC
S1131A606F018130910551F100F1029741F46091C9
S1131A709A0170919B018EE991E00E94C6106091D9
S1131A80940183E891E00E94B91081E180932E02D1
S1131A9041E06EE272E082E20E942D0C87ED94E058
S1131AA00197F1F700C00000089560910001709162
S1131AB0010184E891E00E94C610E1CF6091950194
S1131AC07091960182E991E00E94C610D8CF83E21A
S1131AD080932E0281E080932F0242E06EE272E056
S1131AE082E20E942D0C0E94290C8111FCCF8FEA06
S1131AF094E00197F1F700C0000048E067E372E06A
S1131B0082E20E943E0C0E94290C8111FCCF0895B0
S1131B1082E280932E0281E080932F0242E06EE203
S1131B2072E082E20E942D0C0E94290C8111FCCFEC
S1131B308FEA94E00197F1F700C0000048E067E302
S1131B4072E082E20E943E0C0E94290C8111FCCFBB
S1131B50089582E480932E0281E080932F0242E074
S1131B606EE272E082E20E942D0C0E94290C811127
S1131B70FCCF8FEA94E00197F1F700C0000048E041
S1131B8067E372E082E20C943E0C83E480932E02BD
S1131B9081E080932F0242E06EE272E082E20E94D2
S1131BA02D0C0E94290C8111FCCF8FEA94E001973F
S1131BB0F1F700C0000048E067E372E082E20C94B1
S1131BC03E0CEEE2F2E022E12083118292838383D1
S1131BD07483658346E0BF0182E20E942D0C8FE38B
S1131BE09CE90197F1F700C00000089584E891E0B2
S1131BF00E94B310909301018093000183E891E067
S1131C000E94AB1080939401EEE2F2E081E08083C5
S1131C1080E5818385E0828343E0BF0182E20E9404
S1131C202D0C2FEF8BED95E0215080409040E1F793
S1131C3000C0000061E070E081E090E00C94E10DF0
S1131C4082E991E00E94B3109093960180939501EC
S1131C5083E891E00E94AB1080939401EEE2F2E0FD
S1131C6081E0808381E5818385E0828343E0BF0155
S1131C7082E20E942D0C2FEF8BED95E021508040E5
S1131C809040E1F700C0000061E070E081E090E086
S1131C900C94E10D8EE991E00E94B31090939B01A6
S1131CA080939A0183E891E00E94AB1080939401A1
S1131CB0EEE2F2E081E0808381E5818385E0828346
S1131CC043E0BF0182E20E942D0C2FEF8BED95E0E3
S1131CD0215080409040E1F700C0000060E070E0D7
S1131CE082E093E30E94E10D61E071E082E091E320
S1131CF00E94E10D61E070E081E090E00C94E10D60
S1131D0080EF87BBA39A85B385BB8CE280935D018A
S1131D1089E080935C0182E180935B0180915B01A7
S1131D208D3018F081E0809367010E94C9000E9401
S1131D304F0C0E949E0C41E060E070E080E90E943C
S1131D402D0C00008AB781688ABF89B7806889BF73
S1131D508FE39FE10197F1F700C00000789413BC72
S1131D6088EC90E090938700809386000E94270976
S1131D700E94110613E406E4CFEF90E2D92E20E48A
S1131D80E22ED0E5369A80915001813009F48DC05D
S1131D90811105C080914E01813009F4FDC080910C
S1131DA00501813009F48FC080915201813009F41A
S1131DB0B6C080916801813009F4C2C00E945F05F9
S1131DC080916501813009F4C6C08091620181115E
S1131DD0CBC080915C0180935A0180915B01809318
S1131DE05901809150018111D0C060915C018091B2
S1131DF05B010E941502CABB0000A0EAB1E020E02A
S1131E0030E080E090E0ED912F5F3F4FE13130F51D
S1131E10F0E0EA5FFE4F4081009719F184309105AC
S1131E2051F18230910509F4BEC0509150015130F6
S1131E3009F4A9C0582F5295507F58BB4BBBEFE310
S1131E40F1E03197F1F700C000002530310529F1A8
S1131E500196ED912F5F3F4FE131D0F24FEF0097A4
S1131E60E9F650916001513001F750915001511140
S1131E70DECF4F77DFCF50916701513009F4ABC00B
S1131E8050915001513009F47EC0E8BA4BBB8FE346
S1131E9091E00197F1F700C00000CBBBD8BB369AA4
S1131EA080915001813009F073CF80914F018130CE
S1131EB009F075CF0E94F90010924F01809105013D
S1131EC0813009F071CFF090020142E06CE971E0D9
S1131ED080E90E943E0C60919C0170E0762F662799
S1131EE080919D01682B4F2D87E991E00E94580C49
S1131EF0E0910301F0910401809197018383809123
S1131F00980184831092050180910201813009F4C3
S1131F1048C0158380915201813009F04ACF0E9454
S1131F2052060E94AA0880910301909104010E9424
S1131F30FA081092520180916801813009F03ECF75
S1131F400E94AA03109268010E945F0580916501B6
S1131F50813009F03ACF109265010E9411068091F8
S1131F606201882309F435CF6091560160935A01C8
S1131F70809155018093590190915001911105C0B0
S1131F800E94150238CFCBBB55CF809100019091B0
S1131F9001010E944A012FCF0E942D0D10924E0183
S1131FA0FECE058301CF50916301513071F0509101
S1131FB05001513041F3D8BA4BBBEFE3F1E0319714
S1131FC0F1F700C00000019644CF50915001511127
S1131FD0F0CF4B7F2FCF50916601511151CF5091CB
S1131FE0500151114FCF4F7750CF97FB072E16F466
S1131FF0009407D077FD09D00E94401007FC05D05B
S11320003EF4909581959F4F0895709561957F4F0B
S11320100895052E97FB1EF400940E94201057FD8E
S113202007D00E94541007FC03D04EF40C942010E7
S113203050954095309521953F4F4F4F5F4F0895F0
S113204090958095709561957F4F8F4F9F4F089520
S1132050EE0FFF1F0024001C0BBE0790F691E02D2D
S11320600994A29FB001B39FC001A39F700D811D6D
S11320701124911DB29F700D811D1124911D08958D
S1132080AA1BBB1B51E107C0AA1FBB1FA617B7079A
S113209010F0A61BB70B881F991F5A95A9F78095B6
S11320A09095BC01CD010895A1E21A2EAA1BBB1B79
S11320B0FD010DC0AA1FBB1FEE1FFF1FA217B30710
S11320C0E407F50720F0A21BB30BE40BF50B661F26
S11320D0771F881F991F1A9469F7609570958095EA
S11320E090959B01AC01BD01CF010895BB274A30F7
S11320F031F4992322F4BDE2909581959F4F0C947D
S11321008210BB27FB015527AA27880F991FAA1FF6
S1132110A41710F0A41B83955051B9F7A05DAA33FE
S113212008F0A95DA193009779F7B111B1931192C9
S1132130CB010C949B10DC01FC01672F7191772378
S1132140E1F7329704C07C916D9370836291AE176E
S1132150BF07C8F30895E199FECF9FBB8EBBE09AF9
S113216099278DB30895A8E1B0E042E050E00C94C3
S1132170CD10262FE199FECF9FBB8EBB2DBB0FB692
S1132180F894E29AE19A0FBE019608950E94B9105C
S1132190272F0C94BA10DC01CB01FC01E199FECF8E
S11321A006C0FFBBEEBBE09A31960DB20D924150D2
S10D21B05040B8F70895F894FFCFEB
S11321BA062701400101C0F9A4B0999282F88098D7
S11321CA8883C6A1868EFC414C41524D21212100AF
S11321DA534E4F4F5A454400414C41524D204E4FA5
S11321EA542053455400414C41524D205345540008
S11121FA20423A20202020523A2020200000CB
S9030000FC
