:100000000C9497000C94B6000C94B6000C94B600B7
:100010000C94B6000C94B6000C94B6000C94B60088
:100020000C94CD060C94B6000C94B6000C94B6005B
:100030000C94B6000C94B6000C9496060C94B60082
:100040000C9482060C94B6000C94B6000C94B60086
:100050000C94B6000C94BB060C94B6000C94B6003D
:100060000C94B6000C94B6000C94B6000C94B60038
:100070000C94B6000C94B6000C94B6000C94B60028
:100080000C94B6000C94970B0C94B600D80BAF0BE5
:10009000AF0BAF0BAF0BAF0BAF0BAF0BD80BAF0B67
:1000A000AF0BAF0BAF0BAF0BAF0BAF0BE20BAF0B4D
:1000B000AF0BAF0BAF0BAF0BAF0BAF0BAF0BAF0B70
:1000C000AF0BAF0BAF0BAF0BAF0BAF0BE20BAF0B2D
:1000D000AF0BAF0BAF0BAF0BAF0BAF0BAF0BAF0B50
:1000E000AF0BAF0BAF0BAF0BAF0BAF0BF90BAF0BF6
:1000F000AF0BAF0BAF0BAF0BAF0BAF0BFD0BAF0BE2
:10010000AF0BAF0BAF0BAF0BAF0BAF0BAF0BAF0B1F
:10011000AF0BAF0BAF0BAF0BAF0BAF0B0B0CAF0BB2
:10012000AF0BAF0BAF0BAF0BAF0BAF0BC90B11246A
:100130001FBECFEFD0E1DEBFCDBF11E0A0E0B1E048
:10014000E8EFF1E200E00BBF02C007900D92AC3483
:10015000B107D9F722E0ACE4B1E001C01D92A036AE
:10016000B207E1F70E947D0E0C94FA100C94000087
:1001700010925E0181E180935D0183E180935C01D7
:1001800080915C018D3018F081E0809368010895C2
:1001900087B3876087BB8FEF82B981BB80E58DB95C
:1001A00081E08EB980B7886080BF87B7816087BFE4
:1001B00083B7816083BF85B5896685BD80E49CE98E
:1001C0009DBD8CBD87B7846087BF1FBC8EB5816025
:1001D0008EBDEBE8F0E0808181688083EAE8F0E0A2
:1001E00080818A60808387E687B98FE886B9089521
:1001F0000F931F93CF93DF93C3E0D0E006EB16E29B
:10020000129A1A9A1F98179A1A9A8FE193E00197F7
:10021000F1F700C000001A9890EA9A95F1F7179844
:100220000E94F30D10930101009300010E94D30C72
:10023000219731F7DF91CF911F910F91089541E000
:1002400060E070E080E90E942A0C00000895482FC9
:10025000E82FF0E099B3EE0FFF1FEF58FE4F20811B
:100260003181220F331F306E892F90E002C09595A7
:1002700087954A95E2F78170992741E08427282BDA
:10028000392B3183208381E02115304F09F080E044
:1002900008951F93CF93DF93FC019C01ADECBCEC60
:1002A0000E945010AC015695479556954795569526
:1002B0004795483E23E0520708F47AC09A013695E4
:1002C00027953695279536952795A5ECB0E20E949F
:1002D0005010EC01D295C295CF70CD27DF70CD279D
:1002E00028EE33E0C29FC001C39F900DD29F900DB6
:1002F0001124EA01C81BD90B9E01ADECBCEC0E9495
:1003000050109695879596958795969587951C2F6D
:100310002AE0829F101911249A0136952795369567
:100320002795ABE7B4E10E9450109695879564E657
:10033000689F9001699F300D1124CA01821B930BA5
:100340009C01ADECBCEC0E9450109695879596955B
:10035000879596958795582F9E01369527953695C2
:100360002795ABE7B4E10E94501096958795482FEA
:100370009F01329522952F7023273F702327A7E4F2
:10038000B3E00E945010969587959695879596951F
:1003900087951093A1015093A2019FEF9093A30121
:1003A0004093A4018093A501DF91CF911F910895FF
:1003B0009A010E94501096958795969587959695E7
:1003C0008795142F2AE0829F101911249A013695DF
:1003D000279536952795ABE7B4E10E945010969586
:1003E000879564E6689F9001699F300D1124CA01CA
:1003F000821B930B9C01ADECBCEC0E9450109695B7
:1004000087959695879596958795582F9F01369550
:1004100027953695279536952795A5ECB0E20E944D
:100420005010929582958F7089279F708927482F49
:100430008FEFAFCF9DEC699F212D1124322F369580
:10044000369536954AE0349F60191124362F26954B
:1004500026952695899F912D11249695969596958A
:10046000482F5AE0959F401911248A3030F491E0CA
:10047000809167018130A9F0919580915E0180FFA4
:100480000CC08FEF8093A3013093A1012093A201B0
:100490004093A4019093A501089580E18093A30166
:1004A000F3CF90E0E9CF813130F4E82FF0E0EB5F5B
:1004B000FE4F808108958FEF089550916C01409117
:1004C0006B01282F237020936C018C7090E0959520
:1004D00087959595879580936B018330E9F13091ED
:1004E0006A01409163012330D9F0313081F041300D
:1004F00009F0089580915B018093570180915A0122
:1005000080935601809168018093590108958091EC
:100510005A0180935C0180915B0180935D01E7CF7C
:10052000513009F46AC0523001F7313009F4C9C0C2
:10053000413009F4A5C080918600909187000A9708
:1005400009F4E2C080918600909187000A97909309
:10055000870080938600C9CF30916A01413029F12C
:10056000423009F0BECF40916301311110C04111FA
:100570000EC060916501613051F423B530E0263042
:1005800031050CF0D4C083BD20916C01A8CF8091BF
:100590005001813009F454C080915B01882309F433
:1005A000B8C0815080935B019ECF409163013111AF
:1005B00015C0411113C080916501813079F483B574
:1005C00090E0893F91050CF4ACC08AEF83BD209187
:1005D0006C0130916A014091630185CF8091500197
:1005E000813009F47DC080915B01682F70E06B332E
:1005F0007105C4F010925B0176CF313009F450C020
:10060000413071F180918600909187000A968F3F6A
:10061000910561F058F08FEF90E090938700809300
:10062000860063CF8F5F80935B015DCF80918600F2
:10063000909187000A96909387008093860055CF0B
:1006400060910001709101016A507109709301017C
:100650006093000190914D01892780934D0143CF14
:1006600080916701811120C080915A01682F70E04C
:100670006C3071050CF444C081E080935A0135CF91
:1006800080916701811121C080915A01682F70E02B
:10069000623071050CF441C0815080935A0125CF1E
:1006A00080916701882301F3813009F0ABCF8091FD
:1006B0005A01682F70E06731710514F110925A01E8
:1006C00014CF809167018823F9F2813009F033CF8C
:1006D00080915A018111E0CF87E180935A0105CFC3
:1006E0006091000170910101665F7F4F709301017D
:1006F0006093000190914D01892780934D01F3CEC5
:100700008F5F80935A01F1CE10928700109286007D
:10071000ECCE8BE380935B01E6CE8CE080935A01B4
:10072000E4CE83B58B5F83BD20916C01D8CE83B5B9
:10073000855083BD20916C0130916A014091630125
:10074000D2CEAF92BF92CF92DF92EF92FF920F93F1
:100750001F93CF93DF931ABA2FEF2BBB20E728BB51
:100760002AE12A95F1F700C039B3C0907F01D090FB
:100770008001CC0CDD1C60EED62A232F30E0220F46
:10078000232F221F330B61E026272C293D2930938C
:10079000800120937F012115304F31F430916A019F
:1007A00021E0232720936A0129B326FBEE24E0F8F9
:1007B000F12C21E0E22620917D0130917E01220F73
:1007C000331F306EE22AF32AF0927E01E0927D011F
:1007D000E11430EFF30609F441C129B325FB0027EA
:1007E00000F910E061E0062720917B0130917C0147
:1007F000220F331F306E022B132B10937C010093BA
:100800007B010115104F09F41AC129B322952170FB
:10081000C22F30E0D32F61E0C627209179013091BB
:100820007A01220F331F306EC22BD32BD0937A0163
:10083000C0937901C115D04F31F43091630121E0AB
:1008400023272093630129B323FBAA27A0F9B0E053
:1008500031E0A3272091770130917801220F331FD7
:10086000306EA22BB32BB0937801A0937701A11522
:10087000B04F41F42091610131E0232720936101C1
:100880003093660129B322FBEE27E0F9F0E021E086
:10089000E2272091750130917601220F331F306ECF
:1008A000E22BF32BF0937601E0937501E115F04F05
:1008B00059F43091650121E0322730936501309180
:1008C000520123272093520129B321FB882780F965
:1008D00090E061E086272091730130917401220F2E
:1008E000331F306E822B932B90937401809373018E
:1008F000811520EF920709F494C029B321FBAA24A3
:10090000A0F8B12CB50131E06327706E880F991FF4
:10091000862B972B90937401809373018115904FD0
:1009200041F48091510191E0892780935101909386
:100930004F0129B38091710190917201880F991F25
:10094000906E2095422F417050E0842B952B909310
:10095000720180937101811520EF920709F457C04D
:1009600029B3217041E0242730E0306E880F991FB1
:10097000822B932B90937201809371018115904F7C
:1009800061F480915001982F9427909350014093E7
:100990004F0180934E011092640180E688BB0000F5
:1009A00012BA80E483B9000020916A0140E8249FD4
:1009B000900111249091670160E4969FC001112479
:1009C000282B9091630130E2939FC0011124822B68
:1009D00090916501990F990F892B90915101990F71
:1009E000892B8FB9779BFECFC09AC0988FB10E9498
:1009F0005D0284E082BB13B8DF91CF911F910F910C
:100A0000FF90EF90DF90CF90BF90AF90089520912E
:100A10006401213009F0A4CF109264012093660193
:100A2000BCCF20916401213009F067CF109264019E
:100A30002093550110925401209366017ACF2091A2
:100A40006A01213009F0E1CE309167013111DDCE2C
:100A500030916801232720936801D7CE3091670138
:100A600021E0232720936701309168013130A9F0FC
:100A70002111B3CE20915C012C3008F4AECE21E0E0
:100A80002093680120915C012C3009F4A6CE2091BE
:100A90005C012C5020935C01A0CE213049F71092CC
:100AA000680120915C012C3009F497CE20915C0103
:100AB000245F20935C0191CE80915F01803809F41E
:100AC00082C08091540190915E019C3309F46FC003
:100AD00090915D019C3309F45EC090915C019D3062
:100AE000B0F090916701911112C090915C019C50FF
:100AF00090935C0120915D01909157012917D1F0ED
:100B000010926401109262018A3099F108959091D7
:100B10005C01983178F390916701913059F7909189
:100B20005C01985190935C0120915D019091570177
:100B30002913E6CF20915C01909156012913E0CF53
:100B400020915901909168012913DACF90916301A6
:100B50009111D6CF909162019111D6CF9091610100
:100B6000913091F6909364019093620190936601A5
:100B7000CBCF81E080936401109255011092540113
:100B80008093660180915B018093570180915A01A7
:100B900080935601089590915C019F5F90935C0152
:100BA00090915C019C3079F110925D0196CF90910B
:100BB0006401913029F190915D019F5F90935D01F7
:100BC00010925E0185CF80915E018F5F80935E0100
:100BD00010925F019091530181E098279093530107
:100BE00090910401892780930401809155018130FF
:100BF00009F067CF809154018F5F8093540163CFD8
:100C000090936601D8CF909167019111CDCF20913B
:100C1000680191E0922790936801C6CF0E947708FF
:100C20000E948F08809164018130C1F0809155014C
:100C30008130C9F080916101882321F0813041F039
:100C40000C948F0887E291E00E94F7080C948F08BB
:100C500085E391E00E94F7080C948F0886E191E00B
:100C60000E94F708EDCF8FE191E00E94F708E8CFEE
:100C70000E94A70880910201909103010C94F7084B
:100C800042E06DE971E080E90E943B0CEDE9F1E0A2
:100C9000808190E0982F88272181822B0895CF931F
:100CA000DF9380915201813019F183E40E94740C2A
:100CB000C0910201D091030183E48B8700000E9460
:100CC000A80C89878FE891E00197F1F700C0000038
:100CD000C0910201D09103010E94A80C8A878FE87D
:100CE00091E00197F1F700C00000DF91CF910895E6
:100CF00086E40E94740CC0910201D091030186E445
:100D00008B87DCCF1F920F920FB60F9211248F9317
:100D100081E08093690180915F018F5F80935F0123
:100D20008F910F900FBE0F901F9018951F920F92EA
:100D30000FB60F9211248F939F938091640181309D
:100D400039F09F918F910F900FBE0F901F901895C3
:100D5000809151018111F5CF95B388E0892785BB3A
:100D600080E49CE99DBD8CBD9F918F910F900FBE3B
:100D70000F901F9018951F920F920FB60F9211248B
:100D80008F9380916501811102C085B183BD8F91E0
:100D90000F900FBE0F901F9018951F920F920FB6D5
:100DA0000F9211248F9381E0809350028F910F90C6
:100DB0000FBE0F901F90189591E0811101C090E037
:100DC0009FB9779BFECF6FB9779BFECF8091620072
:100DD00088608093620080916200877F80936200C8
:100DE000089520918201820F911DFC018081811163
:100DF0001FC081E08093810181E08FB9779BFECF96
:100E000080E28FB9779BFECF8091620088608093EB
:100E1000620080916200877F8093620080918201EE
:100E20008F5F80938201803149F1803269F00895AB
:100E3000909181019111E0CF91E09FB9779BFECF16
:100E40008FB9779BFECFE0CF85ED8A95F1F7000053
:100E50001FB8779BFECF80E88FB9779BFECF80913C
:100E6000620088608093620080916200877F809337
:100E7000620010928101109282010895F5EDFA95B9
:100E8000F1F700001FB8779BFECF80EC8FB9779BFE
:100E9000FECF809162008860809362008091620042
:100EA000877F809362000895660F660F660F605C0F
:100EB0001FB8779BFECF6FB9779BFECF2091620062
:100EC00028602093620020916200277F20936200B7
:100ED00025ED2A95F1F70000FC019C01285F3F4FAA
:100EE00091E081919FB9779BFECF8FB9779BFECF21
:100EF0008091620088608093620080916200877FA9
:100F00008093620085ED8A95F1F70000E217F30700
:100F100041F7089590E4899F600D1124605C1FB82B
:100F2000779BFECF6FB9779BFECF80916200886080
:100F30008093620080916200877F809362000895B1
:100F4000811113C081E08FB9779BFECF80E38FB909
:100F5000779BFECF809162008860809362008091D1
:100F60006200877F8093620008958436B0F48A30EF
:100F700060F591E09FB9779BFECF9DEC899F912D05
:100F800011249695969596952AE0929F80191124A2
:100F9000805D8FB9779BFECFDDCF99E2899F912D40
:100FA000112492959F70905D21E02FB9779BFECF21
:100FB0009FB9779BFECF90916200986090936200FA
:100FC00090916200977F9093620099E2899F912DA2
:100FD000112492959F70382F24E6929F3019112486
:100FE0002DEC329F912D1124969596959695905DB6
:100FF00021E02FB9779BFECF9FB9779BFECF9091D1
:10100000620098609093620090916200977F909345
:101010006200AFCF87FF0C94A00791E09FB9779B48
:10102000FECF9DE29FB9779BFECF909162009860C2
:101030009093620090916200977F9093620095ED8B
:101040009A95F1F7000081950C94A0071FB8779B43
:10105000FECF8EE08FB9779BFECF809162008860D3
:101060008093620080916200877F80936200089580
:101070001FB8779BFECF8CE08FB9779BFECF809116
:10108000620088608093620080916200877F809315
:10109000620008951FB8779BFECF8EE18FB9779BD2
:1010A000FECF809162008860809362008091620030
:1010B000877F8093620008951FB8779BFECF88E1F9
:1010C0008FB9779BFECF8091620088608093620029
:1010D00080916200877F809362000895E2E6F0E0ED
:1010E0008081886080838081877F808308951FB896
:1010F000779BFECF81E08FB9779BFECF8091620016
:1011000088608093620080916200877F8093620094
:101110008FE19CE10197F1F700C0000008951FB82E
:10112000779BFECF82E08FB9779BFECF80916200E4
:1011300088608093620080916200877F8093620064
:101140008FE697E10197F1F700C0000008951FB8FE
:10115000779BFECF80EC8FB9779BFECF80916200AA
:1011600088608093620080916200877F8093620034
:1011700008951FB8779BFECF80E88FB9779BFECF8D
:101180008091620088608093620080916200877F16
:1011900080936200089590E131E020E23FB9779BAF
:1011A000FECF2FB9779BFECF80916200886080933D
:1011B000620080916200877F8093620085ED8A954E
:1011C000F1F70000915051F7089591E09FB9779B96
:1011D000FECF8FB9779BFECF8091620088608093AD
:1011E000620080916200877F809362000895FC0115
:1011F00040E050E060E071E0DF01A40FB51F8C918A
:101200007FB9779BFECF8FB9779BFECF909162001D
:1012100098609093620090916200977F9093620033
:1012200085ED8A95F1F700006F5F462F50E0DF01F2
:101230000D900020E9F79D012E1B3F0B2250310934
:1012400024173507C8F608958FEF99EF0197F1F746
:1012500000C0000088E0809361001FB8779BFECF3C
:1012600080E38FB9779BFECF809162008860809386
:10127000620080916200877F809362008FE59DE627
:101280000197F1F700C000001FB8779BFECF80E305
:101290008FB9779BFECF8091620088608093620057
:1012A00080916200877F809362008FE59DE60197C1
:1012B000F1F700C000001FB8779BFECF80E38FB925
:1012C000779BFECF8091620088608093620080915E
:1012D0006200877F809362008FE59DE60197F1F7BA
:1012E00000C000001FB8779BFECF88E38FB9779BC3
:1012F000FECF8091620088608093620080916200DE
:10130000877F809362008FE19EE40197F1F700C030
:1013100000001FB8779BFECF88E08FB9779BFECF88
:101320008091620088608093620080916200877F74
:10133000809362008FE19EE40197F1F700C0000006
:101340001FB8779BFECF81E08FB9779BFECF80914E
:10135000620088608093620080916200877F809342
:1013600062008FE19EE40197F1F700C000001FB812
:10137000779BFECF86E08FB9779BFECF809162008E
:1013800088608093620080916200877F8093620012
:101390008FE19EE40197F1F700C000001FB8779B32
:1013A000FECF8CE08FB9779BFECF80916200886082
:1013B0008093620080916200877F809362008FE15A
:1013C0009EE40197F1F700C0000008954F925F92EC
:1013D0006F927F928F929F92AF92BF92CF92DF9245
:1013E000EF92FF920F931F93CF93DF93CDB7DEB7AA
:1013F00069970FB6F894DEBF0FBECDBF142F422EF3
:101400005E2C002379F06B017C01CC24F7FCC394A3
:10141000DD24EE24FF240C2D6B017C0197FDA3C07D
:10142000C701B601442009F496C09E012F5F3F4FCB
:101430005901490166246A94640C712C3FEF631AC8
:10144000730A6A0C7B1C2AE030E040E050E00E9406
:101450002810E62F2A8B3B8B4C8B5D8B6A897B890E
:101460008C899D8920E32E0FF40121934F016E1684
:101470007F0649F799249394940CF501E40DF11D2E
:101480002EE220832AE030E040E050E00E94281065
:10149000E62F2A8B3B8B4C8B5D8B6E8B7F8B888FE3
:1014A000998F6A897B898C899D8931E0390DD501B5
:1014B000A90DB11DE05DEC93932E611571058105B9
:1014C000910501F7112361F051104BC090E23117E3
:1014D00038F4F501E30FF11D90833F5F1313F9CF4B
:1014E000002331F0F501E30FF11D9DE290833F5F92
:1014F00021E03150F501E30FF11D90812FB9779B69
:10150000FECF9FB9779BFECF909162009860909339
:10151000620090916200977F9093620085ED8A95BA
:10152000F1F700003111E5CF69960FB6F894DEBFF0
:101530000FBECDBFDF91CF911F910F91FF90EF9024
:10154000DF90CF90BF90AF909F908F907F906F90E3
:101550005F904F900895912C9E012F5F3F4F59014E
:1015600091CF90E3B4CFF094E094D094C094C11C98
:10157000D11CE11CF11C54CF5F926F927F928F922D
:101580009F92AF92BF92CF92DF92EF92FF920F9312
:101590001F93CF93DF93CDB7DEB761970FB6F89463
:1015A000DEBF0FBECDBF5C01962E542E622E8B2C5B
:1015B000881C8824881C782C9C0197FD9DC0552090
:1015C00009F48EC08E010F5F1F4F7801CC24CA949E
:1015D000C50CD12C8FEFC81AD80AC00ED11E6AE0F4
:1015E00070E0C9010E941410462F242F372F805D10
:1015F000F70181937F01EC15FD0589F7FF24F39432
:10160000F50CF801E50DF11D8EE2808301C0F92E85
:101610006AE070E0C9010E941410462F242F372F72
:1016200091E09F0DF801EF0DF11D805D8083211584
:10163000310569F7611059C0B7FC63C09920B1F05A
:10164000682D70E080E2292F30E0492D50E0461BE4
:10165000570B2417350754F49F5FF801E20FF31F6F
:101660008083292F30E024173507B4F3772031F039
:10167000F801E90FF11D8DE280839F5F21E0915019
:10168000F801E90FF11D80812FB9779BFECF8FB94B
:10169000779BFECF8091620088608093620080918A
:1016A0006200877F80936200F5EDFA95F1F7000004
:1016B0009111E5CF61960FB6F894DEBF0FBECDBF96
:1016C000DF91CF911F910F91FF90EF90DF90CF901E
:1016D000BF90AF909F908F907F906F905F90089594
:1016E000F12C8E010F5F1F4F93CF992009F4BECFCD
:1016F000682D70E080E3A7CF22273327281B390B02
:101700005ECFF394F394F801E90FF11D8DE280832D
:10171000992059F02F2D30E0492D50E0241735073E
:1017200024F49F2D712C80E297CF9F2DA7CF1F927D
:101730000F920FB60F9211240BB60F922F933F9377
:101740008F939F93AF93BF93EF93FF93E0917100BB
:101750008E2F90E0FC013897E135F105B0F08091D3
:1017600071008093D60184E080937400FF91EF9123
:10177000BF91AF919F918F913F912F910F900BBE91
:101780000F900FBE0F901F901895EA5BFF4F0C94BF
:10179000471080918301E091D701F091D801E80FC3
:1017A000F11D80917300808384E980937400DECF03
:1017B0008091D901809373001092830185E8809312
:1017C0007400D4CF809183019091DA01891760F77A
:1017D000E091D701F091D80191E0980F90938301A7
:1017E000E80FF11D80818093730085E88093740079
:1017F000BDCF85EA80937400B9CF20918301809199
:10180000DA0130E090E0019728173907DCF485EC25
:1018100080937400ABCFE091D701F091D801809113
:10182000830121E0280F20938301E80FF11D8091AF
:10183000730080838091DA0130E090E001972817EF
:1018400039072CF385E88093740090CF8091740061
:10185000817008959091740090FDFCCF8E7F8093ED
:10186000D9017093D8016093D7014093DA0185EADA
:101870008093740008959091740090FDFCCF816076
:101880008093D9017093D8016093D7014093DA0116
:1018900085EA8093740008958FEF8093730010920F
:1018A00071008CE0809370000895FC01CB01880FDB
:1018B000892F881F990B9195413091F49C01220F3B
:1018C000331F220F331F220F331F280F391FADEC98
:1018D000BCEC0E94501096958795969587958096BA
:1018E0004AE0BF010C9495105D9BFECF8CB95D9BC7
:1018F000FECF0895FC019081992349F031965D9BBC
:10190000FECF9CB95D9BFECF91919111F8CF0895C8
:101910009C01FC014491442369F00196F901249152
:101920005D9BFECF2CB95D9BFECF9C01FC014491D9
:101930004111F3CF08958AB188618AB9E5E9F0E0F1
:101940008081866080831092900087E689B908952F
:1019500080E89EE302C0019721F05F9BFCCF8CB131
:10196000089580E0089584E180932F0241E06FE2C2
:1019700072E082E20E942A0C0E94260C8111FCCFA8
:101980008FEA94E00197F1F700C0000041E061E5C3
:1019900072E082E20E943B0C0E94260C8111FCCF77
:1019A00080915102089580E280932F0210923002BC
:1019B0008091000190910101909331028093320255
:1019C000109233021092500245E06FE272E082E220
:1019D0000E942A0C809150028823E1F3089580E44C
:1019E00080932F021092300280919601909197017E
:1019F000909331028093320210923302109234029B
:101A00001092500246E06FE272E082E20E942A0CDD
:101A1000809150028823E1F30895EFE2F2E080E440
:101A20008083118280919B0190919C01928383839A
:101A3000148281E0858346E0BF0182E20E942A0C85
:101A40002FEF87EE93E0215080409040E1F700C0F7
:101A50000000089580916F0190917001813091058F
:101A600051F100F1029741F460919B0170919C014A
:101A70008FE991E00E94E5106091950184E891E082
:101A80000E94D81081E180932F0241E06FE272E062
:101A900082E20E942A0C87ED94E00197F1F700C0E2
:101AA00000000895609100017091010185E891E0C6
:101AB0000E94E510E1CF609196017091970183E952
:101AC00091E00E94E510D8CF83E280932F0281E05D
:101AD0008093300242E06FE272E082E20E942A0CC0
:101AE0000E94260C8111FCCF8FEA94E00197F1F758
:101AF00000C0000048E068E372E082E20E943B0C14
:101B00000E94260C8111FCCF089582E280932F025F
:101B100081E08093300242E06FE272E082E20E9454
:101B20002A0C0E94260C8111FCCF8FEA94E00197C9
:101B3000F1F700C0000048E068E372E082E20E9432
:101B40003B0C0E94260C8111FCCF089582E4809307
:101B50002F0281E08093300242E06FE272E082E285
:101B60000E942A0C0E94260C8111FCCF8FEA94E07F
:101B70000197F1F700C0000048E068E372E082E2FC
:101B80000C943B0C83E480932F0281E0809330021D
:101B900042E06FE272E082E20E942A0C0E94260C70
:101BA0008111FCCF8FEA94E00197F1F700C00000AB
:101BB00048E068E372E082E20C943B0CEFE2F2E072
:101BC00022E120831182928383837483658346E0BC
:101BD000BF0182E20E942A0C8FE39CE90197F1F792
:101BE00000C00000089585E891E00E94D210909313
:101BF00001018093000184E891E00E94CA10809363
:101C00009501EFE2F2E081E0808380E5818385E069
:101C1000828343E0BF0182E20E942A0C2FEF8BED0A
:101C200095E0215080409040E1F700C0000061E065
:101C300070E081E090E00C94DE0D83E991E00E9479
:101C4000D210909397018093960184E891E00E94CE
:101C5000CA1080939501EFE2F2E081E0808381E594
:101C6000818385E0828343E0BF0182E20E942A0CE7
:101C70002FEF8BED95E0215080409040E1F700C0C0
:101C8000000061E070E081E090E00C94DE0D8FE9EF
:101C900091E00E94D21090939C0180939B0184E874
:101CA00091E00E94CA1080939501EFE2F2E081E09A
:101CB000808381E5818385E0828343E0BF0182E206
:101CC0000E942A0C2FEF8BED95E021508040904030
:101CD000E1F700C0000060E070E082E093E30E9462
:101CE000DE0D61E071E082E091E30E94DE0D61E0D3
:101CF00070E081E090E00C94DE0D80EF87BBA39A4A
:101D000085B385BB10925E0181E180935D0183E123
:101D100080935C0180915C018D3018F081E08093AC
:101D200068010E94C8000E944C0C0E949B0C41E07C
:101D300060E070E080E90E942A0C00008AB78168A8
:101D40008ABF89B7806889BF8FE39FE10197F1F768
:101D500000C00000789413BC86E990E0909387005F
:101D6000809386000E9424090E940E0603E496E4F4
:101D7000F92ECFEF1FEFD0E5369A809150018130D8
:101D800009F48FC0811105C080914E01813009F4A2
:101D90001CC180914D01813009F40DC18091510128
:101DA000813009F48CC080916401811105C080915B
:101DB0004C01813009F404C180910401813009F49F
:101DC00093C080915301813009F4BAC080916901B8
:101DD000813009F4C6C00E945C05809166018130A3
:101DE00009F4CAC0809163018111CFC080915D0167
:101DF00080935B0180915C0180935A018091500136
:101E00008111D2C060915D0180915C010E941A0233
:101E1000CABB0000A1EAB1E020E030E080E090E041
:101E2000ED912F5F3F4FE13138F5F0E0EB5FFE4F72
:101E30004081009721F18430910509F4E9C0823096
:101E4000910509F4DBC08130910509F4C5C0CBBB15
:101E5000582F5295507F58BB4BBBEFE3F1E03197C1
:101E6000F1F700C000002530310599F00196ED91A1
:101E70002F5F3F4FE131C8F24FEF0097E1F65091ED
:101E80006101513021F7509150015111E0CF4F774E
:101E9000DECF1BBBD8BB369A80915001813009F050
:101EA00071CF80914F01813009F073CF0E94F8000B
:101EB00010924F0180915101813009F074CF8091CF
:101EC0006401813009F071CFE0904F0191E0E91297
:101ED00073CF10924F010E94F800E0924C01809164
:101EE0000401813009F06DCFE090520142E06DE9CC
:101EF00071E080E90E943B0C60919D0170E0762FBB
:101F0000662780919E01682B4E2D88E991E00E9402
:101F1000550CE0910201F0910301809198018383B7
:101F20008091990184831092040180915201813043
:101F300009F450C0058380915301813009F046CFE8
:101F40000E944F060E94A708809102019091030110
:101F50000E94F7081092530180916901813009F0C5
:101F60003ACF0E94A103109269010E945C05809102
:101F70006601813009F036CF109266010E940E068C
:101F800080916301882309F431CF609157016093F8
:101F90005B018091560180935A01909150019111FB
:101FA00003C00E941A0234CF809100019091010178
:101FB0000E9449012DCF10924D010E94D30CEECE0C
:101FC00010924C010E942A0DF7CE0E942A0D109209
:101FD0004E01E4CEF582F5CE50915001513011F111
:101FE000CBBB582F5295507F58BB4BBBEFE3F1E072
:101FF0003197F1F700C00000019639CF509164018C
:10200000513071F7509150015111EACF4B7FE8CF19
:1020100050916801513009F01ACF50916701511168
:1020200016CF31CF4F77DCCF97FB072E16F40094F5
:1020300007D077FD09D00E945F1007FC05D03EF461
:10204000909581959F4F0895709561957F4F089564
:10205000052E97FB1EF400940E943F1057FD07D0F9
:102060000E94731007FC03D04EF40C943F1050955F
:102070004095309521953F4F4F4F5F4F0895909574
:102080008095709561957F4F8F4F9F4F0895EE0F0C
:10209000FF1F0024001C0BBE0790F691E02D099451
:1020A000A29FB001B39FC001A39F700D811D112499
:1020B000911DB29F700D811D1124911D0895AA1BC1
:1020C000BB1B51E107C0AA1FBB1FA617B70710F023
:1020D000A61BB70B881F991F5A95A9F78095909555
:1020E000BC01CD010895A1E21A2EAA1BBB1BFD0164
:1020F0000DC0AA1FBB1FEE1FFF1FA217B307E407E7
:10210000F50720F0A21BB30BE40BF50B661F771F3E
:10211000881F991F1A9469F760957095809590951E
:102120009B01AC01BD01CF010895BB274A3031F4BA
:10213000992322F4BDE2909581959F4F0C94A110B4
:10214000BB27FB015527AA27880F991FAA1FA41791
:1021500010F0A41B83955051B9F7A05DAA3308F085
:10216000A95DA193009779F7B111B1931192CB01B9
:102170000C94BA10DC01FC01672F71917723E1F711
:10218000329704C07C916D9370836291AE17BF0744
:10219000C8F30895E199FECF9FBB8EBBE09A9927C3
:1021A0008DB30895A8E1B0E042E050E00C94EC104B
:1021B000262FE199FECF9FBB8EBB2DBB0FB6F894A7
:1021C000E29AE19A0FBE019608950E94D810272F37
:1021D0000C94D910DC01CB01FC01E199FECF06C0C3
:1021E000FFBBEEBBE09A31960DB20D9241505040CC
:0821F000B8F70895F894FFCF41
:1021F800B6263F0101C0F9A4B0999282F880988868
:1022080083C6A1868EFC414C41524D2121210053A9
:102218004E4F4F5A454400414C41524D204E4F5469
:102228002053455400414C41524D20534554002001
:0C223800423A20202020523A20202000B2
:00000001FF
