S01100006C6162345F636F64652E73726563B6
S11300000C9446000C9465000C9465000C946500F7
S11300100C9465000C9465000C9465000C946500C8
S11300200C9465000C9465000C9465000C946500B8
S11300300C9465000C9465000C9465000C946500A8
S11300400C94EE010C9465000C9465000C9465000E
S11300500C9465000C9465000C9465000C94650088
S11300600C9465000C9465000C9465000C94650078
S11300700C9465000C9465000C9465000C94650068
S11300800C9465000C9465000C94650011241FBE4B
S1130090CFEFD0E1DEBFCDBF11E0A0E0B1E0E2EBF5
S11300A0FFE000E00BBF02C007900D92A431B1073E
S11300B0D9F721E0A4E1B1E001C01D92A237B20753
S11300C0E1F70E94BD060C94D7070C94000087B397
S11300D0876087BB8FEF82B981BB80E58DB981E0F2
S11300E08EB980B7886080BF87B7816087BF83B7C8
S11300F0816083BF85B58A6685BD0895482FE82F42
S1130100F0E099B3EE0FFF1FE15EFE4F20813181D5
S1130110220F331F306E892F90E002C0959587958A
S11301204A95E2F78170992741E08427282B392BDF
S11301303183208381E02115304F09F080E0089558
S11301409DEC699F212D1124322F369536953695D5
S11301504AE0349F60191124362F2695269526955A
S1130160899F912D1124969596959695482F5AE03E
S1130170959F401911248A3030F491E08091020156
S11301808130A9F091958091140180FF0CC08FEF0C
S113019080933F0130933D0120933E014093400101
S11301A090934101089580E180933F01F3CF90E063
S11301B0E9CF813130F4E82FF0E0ED5FFE4F80812C
S11301C008958FEF089530911A0140911901282F55
S11301D0237020931A018C7090E0959587959595DE
S11301E08795809319018330B9F0233009F008957D
S11301F0313011F13230D9F7809118018130B9F7DB
S11302008091000190E002970CF44EC080910001AF
S113021081508093000108954130C1F0423029F7A4
S113022080911801811126C083B590E00B9794F555
S113023013BC20911A01D9CF809118018130B9F6ED
S1130240809100018F5F80930001089580911801CF
S113025081110AC083B590E0843F9105ACF08EEF24
S113026083BD20911A01C1CF809101018F5F8093DA
S11302700101BBCF80910101882391F0809101019C
S1130280815080930101B1CF83B5865F83BD2091F6
S11302901A01ABCF83B58A5083BD20911A01A5CF33
S11302A08BE380930101A1CF8CE08093000108953A
S11302B0CF931ABA8FEF8BBB80E788BB2AE12A95CC
S11302C0F1F700C0C0911C01C0931B01EFE1F1E004
S11302D020E030E061E070E089B390E0022E02C0DB
S11302E0959587950A94E2F781709927A1E08A276A
S11302F0A081B181AA0FBB1FB06E8A2B9B2B819367
S113030091938115904F09F457C02F5F3F4F2230CE
S1130310310511F799B320912D0130912E01220F4F
S1130320331F306E892F90E0880F892F881F990B17
S113033061E08627822B932B90932E0180932D01CD
S11303408115904F31F49091180181E089278093B1
S1130350180129B380912B0190912C01880F991FCA
S1130360906E26FB442740F950E021E04227842B7D
S1130370952B90932C0180932B018115904F31F490
S11303809091020181E089278093020180E688BB75
S1130390000012BA80E483B90000809118018FB97B
S11303A0779BFECFC09AC0988FB10E94E30084E08F
S11303B082BB13B8CF910895A0911C01CB01022EEA
S11303C001C0880F0A94EAF78A2780931C01809160
S11303D01C01C8139ACF10921C0197CF1F920F9241
S11303E00FB60F9211248F9381E0809317018091AF
S11303F015018F5F809315018F910F900FBE0F90A1
S11304001F90189591E0811101C090E09FB9779BEE
S1130410FECF6FB9779BFECF809162008860809396
S1130420620080916200877F80936200089520912A
S11304303001820F911DFC01808181111FC081E078
S113044080932F0181E08FB9779BFECF80E28FB933
S1130450779BFECF809162008860809362008091D8
S11304606200877F80936200809130018F5F809368
S11304703001803149F1803269F0089590912F0163
S11304809111E0CF91E09FB9779BFECF8FB9779B15
S1130490FECFE0CF85ED8A95F1F700001FB8779B7A
S11304A0FECF80E88FB9779BFECF80916200886091
S11304B08093620080916200877F80936200109233
S11304C02F01109230010895F5EDFA95F1F700002F
S11304D01FB8779BFECF80EC8FB9779BFECF8091BE
S11304E0620088608093620080916200877F8093BD
S11304F062000895660F660F660F605C1FB8779BF5
S1130500FECF6FB9779BFECF2091620028602093C5
S1130510620020916200277F2093620025ED2A95D6
S1130520F1F70000FC019C01285F3F4F91E08191AD
S11305309FB9779BFECF8FB9779BFECF80916200E6
S113054088608093620080916200877F809362005C
S113055085ED8A95F1F70000E217F30741F7089556
S113056090E4899F600D1124605C1FB8779BFECFD7
S11305706FB9779BFECF80916200886080936200A0
S113058080916200877F809362000895811113C077
S113059081E08FB9779BFECF80E38FB9779BFECF45
S11305A08091620088608093620080916200877FFE
S11305B08093620008958436B0F48A3060F591E047
S11305C09FB9779BFECF9DEC899F912D1124969521
S11305D0969596952AE0929F80191124805D8FB993
S11305E0779BFECFDDCF99E2899F912D11249295BF
S11305F09F70905D21E02FB9779BFECF9FB9779BC9
S1130600FECF909162009860909362009091620096
S1130610977F9093620099E2899F912D112492957E
S11306209F70382F24E6929F301911242DEC329FAD
S1130630912D1124969596959695905D21E02FB96C
S1130640779BFECF9FB9779BFECF90916200986015
S11306509093620090916200977F90936200AFCF75
S113066087FF0C94C60291E09FB9779BFECF9DE271
S11306709FB9779BFECF909162009860909362003F
S113068090916200977F9093620095ED9A95F1F7AF
S1130690000081950C94C6021FB8779BFECF8EE0B4
S11306A08FB9779BFECF809162008860809362004F
S11306B080916200877F8093620008951FB8779BC2
S11306C0FECF8CE08FB9779BFECF8091620088606B
S11306D08093620080916200877F80936200089516
S11306E01FB8779BFECF8EE18FB9779BFECF8091A9
S11306F0620088608093620080916200877F8093AB
S1130700620008951FB8779BFECF88E18FB9779B6D
S1130710FECF8091620088608093620080916200C5
S1130720877F809362000895E2E6F0E0808188602C
S113073080838081877F808308951FB8779BFECF55
S113074081E08FB9779BFECF8091620088608093AF
S1130750620080916200877F809362008FE19CE158
S11307600197F1F700C0000008951FB8779BFECFF2
S113077082E08FB9779BFECF80916200886080937E
S1130780620080916200877F809362008FE697E128
S11307900197F1F700C0000008951FB8779BFECFC2
S11307A080EC8FB9779BFECF809162008860809344
S11307B0620080916200877F8093620008951FB871
S11307C0779BFECF80E88FB9779BFECF8091620044
S11307D088608093620080916200877F80936200CA
S11307E0089590E131E020E23FB9779BFECF2FB925
S11307F0779BFECF80916200886080936200809135
S11308006200877F8093620085ED8A95F1F700008E
S1130810915051F7089591E09FB9779BFECF8FB91E
S1130820779BFECF80916200886080936200809104
S11308306200877F809362000895FC0140E050E0ED
S113084060E071E0DF01A40FB51F8C917FB9779B45
S1130850FECF8FB9779BFECF909162009860909302
S1130860620090916200977F9093620085ED8A9573
S1130870F1F700006F5F462F50E0DF010D9000207C
S1130880E9F79D012E1B3F0B225031092417350730
S1130890C8F608958FEF99EF0197F1F700C00000B3
S11308A088E0809361001FB8779BFECF80E38FB907
S11308B0779BFECF80916200886080936200809174
S11308C06200877F809362008FE59DE60197F1F7D0
S11308D000C000001FB8779BFECF80E38FB9779BE1
S11308E0FECF8091620088608093620080916200F4
S11308F0877F809362008FE59DE60197F1F700C042
S113090000001FB8779BFECF80E38FB9779BFECFA3
S11309108091620088608093620080916200877F8A
S1130920809362008FE59DE60197F1F700C0000017
S11309301FB8779BFECF88E38FB9779BFECF80915A
S1130940620088608093620080916200877F809358
S113095062008FE19EE40197F1F700C000001FB828
S1130960779BFECF88E08FB9779BFECF80916200A2
S113097088608093620080916200877F8093620028
S11309808FE19EE40197F1F700C000001FB8779B48
S1130990FECF81E08FB9779BFECF809162008860A3
S11309A08093620080916200877F809362008FE170
S11309B09EE40197F1F700C000001FB8779BFECFBB
S11309C086E08FB9779BFECF809162008860809328
S11309D0620080916200877F809362008FE19EE4D1
S11309E00197F1F700C000001FB8779BFECF8CE0A1
S11309F08FB9779BFECF80916200886080936200FC
S1130A0080916200877F809362008FE19EE401976A
S1130A10F1F700C0000008954F925F926F927F92A9
S1130A208F929F92AF92BF92CF92DF92EF92FF92FA
S1130A300F931F93CF93DF93CDB7DEB769970FB6AC
S1130A40F894DEBF0FBECDBF142F422E5E2C0023C0
S1130A5079F06B017C01CC24F7FCC394DD24EE24F3
S1130A60FF240C2D6B017C0197FDA3C0C701B601C7
S1130A70442009F496C09E012F5F3F4F590149015C
S1130A8066246A94640C712C3FEF631A730A6A0C2F
S1130A907B1C2AE030E040E050E00E948207E62F11
S1130AA02A8B3B8B4C8B5D8B6A897B898C899D89D6
S1130AB020E32E0FF40121934F016E167F0649F7B0
S1130AC099249394940CF501E40DF11D2EE22083F6
S1130AD02AE030E040E050E00E948207E62F2A8BB3
S1130AE03B8B4C8B5D8B6E8B7F8B888F998F6A8948
S1130AF07B898C899D8931E0390DD501A90DB11D02
S1130B00E05DEC93932E611571058105910501F764
S1130B10112361F051104BC090E2311738F4F50104
S1130B20E30FF11D90833F5F1313F9CF002331F0DE
S1130B30F501E30FF11D9DE290833F5F21E0315009
S1130B40F501E30FF11D90812FB9779BFECF9FB97B
S1130B50779BFECF90916200986090936200909191
S1130B606200977F9093620085ED8A95F1F700000B
S1130B703111E5CF69960FB6F894DEBF0FBECDBF35
S1130B80DF91CF911F910F91FF90EF90DF90CF9065
S1130B90BF90AF909F908F907F906F905F904F9099
S1130BA00895912C9E012F5F3F4F590191CF90E3FF
S1130BB0B4CFF094E094D094C094C11CD11CE11C37
S1130BC0F11C54CF5F926F927F928F929F92AF925B
S1130BD0BF92CF92DF92EF92FF920F931F93CF9326
S1130BE0DF93CDB7DEB761970FB6F894DEBF0FBEC3
S1130BF0CDBF5C01962E542E622E8B2C881C88242B
S1130C00881C782C9C0197FD9DC0552009F48EC04A
S1130C108E010F5F1F4F7801CC24CA94C50CD12CD0
S1130C208FEFC81AD80AC00ED11E6AE070E0C9015D
S1130C300E946E07462F242F372F805DF701819382
S1130C407F01EC15FD0589F7FF24F394F50CF801F9
S1130C50E50DF11D8EE2808301C0F92E6AE070E09B
S1130C60C9010E946E07462F242F372F91E09F0D54
S1130C70F801EF0DF11D805D80832115310569F7C1
S1130C80611059C0B7FC63C09920B1F0682D70E0C1
S1130C9080E2292F30E0492D50E0461B570B2417E2
S1130CA0350754F49F5FF801E20FF31F8083292F67
S1130CB030E024173507B4F3772031F0F801E90F59
S1130CC0F11D8DE280839F5F21E09150F801E90FCF
S1130CD0F11D80812FB9779BFECF8FB9779BFECF13
S1130CE08091620088608093620080916200877FB7
S1130CF080936200F5EDFA95F1F700009111E5CFCC
S1130D0061960FB6F894DEBF0FBECDBFDF91CF91D1
S1130D101F910F91FF90EF90DF90CF90BF90AF9015
S1130D209F908F907F906F905F900895F12C8E012B
S1130D300F5F1F4F93CF992009F4BECF682D70E049
S1130D4080E3A7CF22273327281B390B5ECFF394E8
S1130D50F394F801E90FF11D8DE28083992059F095
S1130D602F2D30E0492D50E02417350724F49F2D12
S1130D70712C80E297CF9F2DA7CF80EF87BB0E9475
S1130D806700789413BC01E0CFEF10E4D0E58091C4
S1130D901701813009F456C080911501803809F497
S1130DA05AC0809114018C3309F461C0809101010F
S1130DB08C3309F468C0809100018D3009F473C04C
S1130DC080910001883109F475C06091010180911E
S1130DD000010E94A000CABB0000ADE3B1E080E0C6
S1130DE090E014C0F0E0ED5FFE4F20818430910567
S1130DF0A1F0CBBB382F3295307F38BB2BBBEFE350
S1130E00F1E03197F1F700C000000196ED91E13176
S1130E1048F32FEF8430910561F7809116018130FA
S1130E2009F456C0CBBB18BB2BBB8FE391E00197F1
S1130E30F1F700C00000CBBBD8BB80911701813013
S1130E4009F0AACF0E945801109217018091150150
S1130E50803809F0A6CF809114018F5F809314012C
S1130E6010921501809114018C3309F09FCF809169
S1130E7001018F5F8093010110921401809101019F
S1130E808C3309F098CF809100018F5F809300012B
S1130E90809100018C30B1F0109201018091000129
S1130EA08D3009F08DCF80910201811189CF00939B
S1130EB000018BCF80910201813009F086CF10921E
S1130EC0000183CF80911601802780931601E4CF1F
S1130ED0809102018111A6CF2F77A4CF97FB072E13
S1130EE016F4009407D077FD09D00E94A10707FCEF
S1130EF005D03EF4909581959F4F08957095619526
S1130F007F4F0895052E97FB1EF400940E949907C5
S1130F1057FD07D00E94B50707FC03D04EF40C948C
S1130F20990750954095309521953F4F4F4F5F4F0E
S1130F30089590958095709561957F4F8F4F9F4F41
S1130F400895AA1BBB1B51E107C0AA1FBB1FA6170C
S1130F50B70710F0A61BB70B881F991F5A95A9F75E
S1130F6080959095BC01CD010895A1E21A2EAA1B8B
S1130F70BB1BFD010DC0AA1FBB1FEE1FFF1FA21745
S1130F80B307E407F50720F0A21BB30BE40BF50B42
S1130F90661F771F881F991F1A9469F760957095CB
S1130FA0809590959B01AC01BD01CF010895F89403
S1050FB0FFCF6D
S1130FB20B3B01C0F9A4B0999282F880988883C649
S1070FC2A1868EFC76
S9030000FC
