S01100006C6162345F636F64652E73726563B6
S11300000C9446000C9465000C9465000C946500F7
S11300100C9465000C9465000C9465000C946500C8
S11300200C9465000C9465000C9465000C946500B8
S11300300C9465000C9465000C947F030C9465008B
S11300400C946B030C9465000C9465000C9465008F
S11300500C9465000C9465000C9465000C94650088
S11300600C9465000C9465000C9465000C94650078
S11300700C9465000C9465000C9465000C94650068
S11300800C9465000C9465000C94650011241FBE4B
S1130090CFEFD0E1DEBFCDBF11E0A0E0B1E0E0EAF8
S11300A0F2E100E00BBF02C007900D92A231B1074C
S11300B0D9F721E0A2E1B1E001C01D92AA37B2074D
S11300C0E1F70E9454080C944E090C94000010921D
S11300D01A018AE3809319018EEF809318018091AD
S11300E018018D3040F0809118018C5080931801D4
S11300F081E080932001089587B3876087BB8FEFE9
S113010082B981BB80E58DB981E08EB980B7886002
S113011080BF87B7816087BF83B7816083BF85B5A0
S11301208A6685BD80E49CE99DBD8CBD87B78460EB
S113013087BF1FBC8EB581608EBDEBE8F0E0808187
S113014081688083EAE8F0E080818A608083089592
S1130150482FE82FF0E099B3EE0FFF1FE95DFE4F43
S113016020813181220F331F306E892F90E002C02D
S1130170959587954A95E2F78170992741E0842700
S1130180282B392B3183208381E02115304F09F04E
S113019080E008959DEC699F212D1124322F36951E
S11301A0369536954AE0349F60191124362F2695EA
S11301B026952695899F912D112496959695969529
S11301C0482F5AE0959F401911248A3030F491E069
S11301D080911F018130A9F0919580911A0180FFCF
S11301E00CC08FEF80934701309345012093460163
S11301F04093480190934901089580E18093470119
S1130200F3CF90E0E9CF813130F4E82FF0E0E05013
S1130210FF4F808108958FEF08953091240140911C
S11302202301282F2370209324018C7090E095954E
S1130230879595958795809323018330A1F18091CB
S1130240220190911D01233099F0813009F440C0BE
S1130250913009F0089580911701809313018091E2
S11302601601809312018091200180931501089555
S1130270313009F45EC0323041F7813009F48AC06C
S113028020918600309187002A30310509F473C02B
S113029020918600309187002A50310930938700DD
S11302A020938600D5CF80912201413019F142304C
S11302B041F690911D01811114C0911112C083B5B2
S11302C090E00B970CF077C013BC20912401B7CFBA
S11302D08091160180931801809117018093190170
S11302E0B7CF40911701442309F44AC041504093C9
S11302F01701A9CF90911D01811111C091110FC057
S113030083B590E0843F91050CF44FC08EEF83BD1C
S1130310209124018091220190911D0194CF40915C
S11303201701642F70E06B337105B4F0109217015C
S11303308ACF813049F12091860030918700265F71
S11303403F4F2F3F310561F058F02FEF30E03093ED
S11303508700209386007CCF4F5F4093170173CFB3
S11303602091860030918700265F3F4F30938700AD
S1130370209386006DCF109287001092860068CF7C
S11303804BE3409317015FCF809116018F5F8093F9
S11303901601A0CF80911601282F30E022303105BC
S11303A0A4F081508093160195CF83B5865F83BDF9
S11303B02091240144CF83B58A5083BD2091240128
S11303C08091220190911D013ECF8CE08093160113
S11303D081CFCF931ABA8FEF8BBB80E788BB8AE1BA
S11303E08A95F1F700C099B3A0913501B091360117
S11303F0AA0FBB1FB06E892F90E0880F892F881F2A
S1130400990BC1E08C278A2B9B2B90933601809308
S113041035018115904F31F49091220181E08927B3
S11304208093220189B386FB662760F970E0CB01D3
S1130430C1E08C276091330170913401660F771FFE
S1130440706E682B792B70933401609333016115BE
S1130450704F09F47DC089B385FBEE27E0F9F0E025
S1130460A1E0EA278091310190913201880F991F10
S1130470906E8E2B9F2B90933201809331018115C6
S1130480904F09F456C089B384FB222720F930E049
S1130490C90161E0862720912F0130913001220F9C
S11304A0331F306E282B392B3093300120932F01CA
S11304B02115304F31F490911D0181E089278093FB
S11304C01D0129B38091270190912801880F991F5C
S11304D0906E2095422F417050E0842B952B909381
S11304E02801809327018115904FE1F080E688BBB5
S11304F0000012BA80E483B9000090912201809137
S11305001F01890F90911D01890F8FB9779BFECF31
S1130510C09AC0988FB10E940D0184E082BB13B8C9
S1130520CF91089580911E01813001F710921E0130
S1130530DDCF80912201813009F0A5CF90911F0178
S11305409111A1CF909120018927809320019BCF05
S113055090911F0181E0892780931F0190912001D0
S11305609130A9F0811177CF809118018C3008F473
S113057072CF81E080932001809118018C3009F4BE
S11305806ACF809118018C508093180164CF813018
S113059049F710922001809118018C3009F45BCF47
S11305A080911801845F8093180155CF80911B01BD
S11305B08038A1F180911A018C33D9F1809119010D
S11305C08C3309F442C0809118018D3009F44DC078
S11305D080911801883109F46FC0909119018091BC
S11305E01301981709F44EC010921E0110921C01B9
S11305F02091190130E090E001962817390759F04D
S11306002091180130E08091120190E001962817A2
S1130610390709F0089510921E01089580911A0176
S11306208F5F80931A0110921B0180911A018C3301
S113063029F6809119018F5F8093190110921A0194
S1130640809119018C3309F0BECF809118018F5F1E
S113065080931801809118018C30B1F11092190126
S1130660809118018D3009F0B3CF80911F01811161
S1130670AFCF81E08093180190911901809113010B
S11306809813B2CF20911801909112012913ACCF85
S113069020911501909120012913A6CF90911D015D
S11306A09111A2CF90911C019111A2CF91E090934E
S11306B01E0190931C019CCF80911F01813009F091
S11306C08CCF1092180189CF9091200181E0892765
S11306D080932001C3CF1F920F920FB60F92112463
S11306E08F9381E08093210180911B018F5F809320
S11306F01B018F910F900FBE0F901F9018951F92A2
S11307000F920FB60F9211248F939F9380911E0125
S1130710813041F495B388E0892785BB80E49CE966
S11307209DBD8CBD9F918F910F900FBE0F901F9018
S1130730189591E0811101C090E09FB9779BFECF9D
S11307406FB9779BFECF80916200886080936200CE
S113075080916200877F8093620008952091380120
S1130760820F911DFC01808181111FC081E0809363
S1130770370181E08FB9779BFECF80E28FB9779BF9
S1130780FECF809162008860809362008091620055
S1130790877F80936200809138018F5F8093380156
S11307A0803149F1803269F00895909137019111B7
S11307B0E0CF91E09FB9779BFECF8FB9779BFECFB7
S11307C0E0CF85ED8A95F1F700001FB8779BFECF47
S11307D080E88FB9779BFECF809162008860809318
S11307E0620080916200877F8093620010923701DB
S11307F0109238010895F5EDFA95F1F700001FB84D
S1130800779BFECF80EC8FB9779BFECF80916200FF
S113081088608093620080916200877F8093620089
S11308200895660F660F660F605C1FB8779BFECF56
S11308306FB9779BFECF20916200286020936200FD
S113084020916200277F2093620025ED2A95F1F71D
S11308500000FC019C01285F3F4F91E081919FB90A
S1130860779BFECF8FB9779BFECF80916200886023
S11308708093620080916200877F8093620085ED9F
S11308808A95F1F70000E217F30741F7089590E421
S1130890899F600D1124605C1FB8779BFECF6FB9F0
S11308A0779BFECF80916200886080936200809184
S11308B06200877F809362000895811113C081E0F4
S11308C08FB9779BFECF80E38FB9779BFECF809162
S11308D0620088608093620080916200877F8093C9
S11308E0620008958436B0F48A3060F591E09FB9CF
S11308F0779BFECF9DEC899F912D1124969596951B
S113090096952AE0929F80191124805D8FB9779B78
S1130910FECFDDCF99E2899F912D112492959F708E
S1130920905D21E02FB9779BFECF9FB9779BFECFD7
S11309309091620098609093620090916200977F1A
S11309409093620099E2899F912D112492959F7052
S1130950382F24E6929F301911242DEC329F912DCB
S11309601124969596959695905D21E02FB9779BE5
S1130970FECF9FB9779BFECF9091620098609093D1
S1130980620090916200977F90936200AFCF87FFDF
S11309900C945D0491E09FB9779BFECF9DE29FB9D3
S11309A0779BFECF90916200986090936200909143
S11309B06200977F9093620095ED9A95F1F700009D
S11309C081950C945D041FB8779BFECF8EE08FB9A0
S11309D0779BFECF80916200886080936200809153
S11309E06200877F8093620008951FB8779BFECFD3
S11309F08CE08FB9779BFECF8091620088608093F2
S1130A00620080916200877F8093620008951FB81E
S1130A10779BFECF8EE18FB9779BFECF80916200EA
S1130A2088608093620080916200877F8093620077
S1130A3008951FB8779BFECF88E18FB9779BFECFCF
S1130A408091620088608093620080916200877F59
S1130A50809362000895E2E6F0E0808188608083FC
S1130A608081877F808308951FB8779BFECF81E0C4
S1130A708FB9779BFECF809162008860809362007B
S1130A8080916200877F809362008FE19CE10197EF
S1130A90F1F700C0000008951FB8779BFECF82E0F5
S1130AA08FB9779BFECF809162008860809362004B
S1130AB080916200877F809362008FE697E10197BF
S1130AC0F1F700C0000008951FB8779BFECF80ECBB
S1130AD08FB9779BFECF809162008860809362001B
S1130AE080916200877F8093620008951FB8779B8E
S1130AF0FECF80E88FB9779BFECF8091620088603B
S1130B008093620080916200877F809362000895E1
S1130B1090E131E020E23FB9779BFECF2FB9779B7C
S1130B20FECF8091620088608093620080916200B1
S1130B30877F8093620085ED8A95F1F700009150DC
S1130B4051F7089591E09FB9779BFECF8FB9779BBA
S1130B50FECF809162008860809362008091620081
S1130B60877F809362000895FC0140E050E060E0DC
S1130B7071E0DF01A40FB51F8C917FB9779BFECF85
S1130B808FB9779BFECF909162009860909362003A
S1130B9090916200977F9093620085ED8A95F1F7BA
S1130BA000006F5F462F50E0DF010D900020E9F751
S1130BB09D012E1B3F0B2250310924173507C8F61F
S1130BC008958FEF99EF0197F1F700C0000088E0D6
S1130BD0809361001FB8779BFECF80E38FB9779B2A
S1130BE0FECF8091620088608093620080916200F1
S1130BF0877F809362008FE59DE60197F1F700C03F
S1130C0000001FB8779BFECF80E38FB9779BFECFA0
S1130C108091620088608093620080916200877F87
S1130C20809362008FE59DE60197F1F700C0000014
S1130C301FB8779BFECF80E38FB9779BFECF80915F
S1130C40620088608093620080916200877F809355
S1130C5062008FE59DE60197F1F700C000001FB820
S1130C60779BFECF88E38FB9779BFECF809162009C
S1130C7088608093620080916200877F8093620025
S1130C808FE19EE40197F1F700C000001FB8779B45
S1130C90FECF88E08FB9779BFECF80916200886099
S1130CA08093620080916200877F809362008FE16D
S1130CB09EE40197F1F700C000001FB8779BFECFB8
S1130CC081E08FB9779BFECF80916200886080932A
S1130CD0620080916200877F809362008FE19EE4CE
S1130CE00197F1F700C000001FB8779BFECF86E0A4
S1130CF08FB9779BFECF80916200886080936200F9
S1130D0080916200877F809362008FE19EE4019767
S1130D10F1F700C000001FB8779BFECF8CE08FB9BD
S1130D20779BFECF809162008860809362008091FF
S1130D306200877F809362008FE19EE40197F1F760
S1130D4000C0000008954F925F926F927F928F923D
S1130D509F92AF92BF92CF92DF92EF92FF920F9346
S1130D601F93CF93DF93CDB7DEB769970FB6F8948F
S1130D70DEBF0FBECDBF142F422E5E2C002379F0B0
S1130D806B017C01CC24F7FCC394DD24EE24FF2406
S1130D900C2D6B017C0197FDA3C0C701B601442053
S1130DA009F496C09E012F5F3F4F59014901662403
S1130DB06A94640C712C3FEF631A730A6A0C7B1CEF
S1130DC02AE030E040E050E00E94F908E62F2A8B48
S1130DD03B8B4C8B5D8B6A897B898C899D8920E355
S1130DE02E0FF40121934F016E167F0649F79924C3
S1130DF09394940CF501E40DF11D2EE220832AE076
S1130E0030E040E050E00E94F908E62F2A8B3B8B4B
S1130E104C8B5D8B6E8B7F8B888F998F6A897B89D6
S1130E208C899D8931E0390DD501A90DB11DE05D95
S1130E30EC93932E611571058105910501F711233A
S1130E4061F051104BC090E2311738F4F501E30F13
S1130E50F11D90833F5F1313F9CF002331F0F501A7
S1130E60E30FF11D9DE290833F5F21E03150F501D6
S1130E70E30FF11D90812FB9779BFECF9FB9779B2C
S1130E80FECF90916200986090936200909162000E
S1130E90977F9093620085ED8A95F1F700003111F8
S1130EA0E5CF69960FB6F894DEBF0FBECDBFDF91D4
S1130EB0CF911F910F91FF90EF90DF90CF90BF9053
S1130EC0AF909F908F907F906F905F904F90089518
S1130ED0912C9E012F5F3F4F590191CF90E3B4CFE6
S1130EE0F094E094D094C094C11CD11CE11CF11C7A
S1130EF054CF5F926F927F928F929F92AF92BF92E4
S1130F00CF92DF92EF92FF920F931F93CF93DF93D1
S1130F10CDB7DEB761970FB6F894DEBF0FBECDBF75
S1130F205C01962E542E622E8B2C881C8824881CDF
S1130F30782C9C0197FD9DC0552009F48EC08E012C
S1130F400F5F1F4F7801CC24CA94C50CD12C8FEFAE
S1130F50C81AD80AC00ED11E6AE070E0C9010E9406
S1130F60E508462F242F372F805DF70181937F01F9
S1130F70EC15FD0589F7FF24F394F50CF801E50D54
S1130F80F11D8EE2808301C0F92E6AE070E0C90190
S1130F900E94E508462F242F372F91E09F0DF8017A
S1130FA0EF0DF11D805D80832115310569F7611016
S1130FB059C0B7FC63C09920B1F0682D70E080E29D
S1130FC0292F30E0492D50E0461B570B24173507D5
S1130FD054F49F5FF801E20FF31F8083292F30E060
S1130FE024173507B4F3772031F0F801E90FF11D28
S1130FF08DE280839F5F21E09150F801E90FF11D9C
S113100080812FB9779BFECF8FB9779BFECF8091DC
S1131010620088608093620080916200877F809381
S11310206200F5EDFA95F1F700009111E5CF6196B4
S11310300FB6F894DEBF0FBECDBFDF91CF911F91E5
S11310400F91FF90EF90DF90CF90BF90AF909F9063
S11310508F907F906F905F900895F12C8E010F5FB9
S11310601F4F93CF992009F4BECF682D70E080E321
S1131070A7CF22273327281B390B5ECFF394F39491
S1131080F801E90FF11D8DE28083992059F02F2D8D
S113109030E0492D50E02417350724F49F2D712C9E
S11310A080E297CF9F2DA7CF80EF87BBA39A85B30C
S11310B085BB10921A018AE3809319018EEF809305
S11310C01801809118018D3040F0809118018C50E6
S11310D08093180181E0809320010E947C00789421
S11310E013BC88EC90E09093870080938600CFEF48
S11310F010E4D0E580912101813009F44AC00E94B6
S1131100D60280911D0181114FC0809119018093F5
S11311101701809118018093160160911901809143
S113112018010E94CA00CABB0000A5E4B1E080E037
S113113090E014C0F0E0E050FF4F2081843091052E
S1131140A1F0CBBB382F3295307F38BB2BBBEFE3FC
S1131150F1E03197F1F700C000000196ED91E13123
S113116048F32FEF8430910561F78091200181309D
S113117031F1CBBB18BB2BBB8FE391E00197F1F7A7
S113118000C00000CBBBD8BB80912101813009F0A5
S1131190B6CF0E94E901109221010E94D6028091EB
S11311A01D01882309F4B1CF6091130160931701E5
S11311B080911201809316010E94CA00B4CF8091DD
S11311C01F018111D6CF2F77D4CF97FB072E16F4AA
S11311D0009407D077FD09D00E94180907FC05D0B8
S11311E03EF4909581959F4F0895709561957F4F3A
S11311F00895052E97FB1EF400940E94100957FDD4
S113120007D00E942C0907FC03D04EF40C9410095B
S113121050954095309521953F4F4F4F5F4F08951E
S113122090958095709561957F4F8F4F9F4F08954E
S1131230AA1BBB1B51E107C0AA1FBB1FA617B707F8
S113124010F0A61BB70B881F991F5A95A9F7809514
S11312509095BC01CD010895A1E21A2EAA1BBB1BD7
S1131260FD010DC0AA1FBB1FEE1FFF1FA217B3076E
S1131270E407F50720F0A21BB30BE40BF50B661F84
S1131280771F881F991F1A9469F760957095809548
S113129090959B01AC01BD01CF010895F894FFCF57
S11312A0C0F9A4B0999282F880988883C6A1868EEA
S10512B0FC003C
S9030000FC
