S01100006C6162345F636F64652E73726563B6
S11300000C9446000C9465000C9465000C946500F7
S11300100C9465000C9465000C9465000C946500C8
S11300200C9465000C9465000C9465000C946500B8
S11300300C9465000C9465000C9400040C94650009
S11300400C94EC030C9465000C9465000C9465000E
S11300500C9465000C9465000C9465000C94650088
S11300600C9465000C9465000C9465000C94650078
S11300700C9465000C9465000C9465000C94650068
S11300800C9465000C9465000C94650011241FBE4B
S1130090CFEFD0E1DEBFCDBF11E0A0E0B1E0ECEEE8
S11300A0F3E100E00BBF02C007900D92A434B10746
S11300B0D9F721E0A4E4B1E001C01D92AE3AB20741
S11300C0E1F70E94D5080C94F4090C94000089E12E
S11300D080934E0180E180934D0110924C018091F8
S11300E04C018D3040F080914C018C5080934C0138
S11300F081E080935401089587B3876087BB8FEFB5
S113010082B981BB80E58DB981E08EB980B7886002
S113011080BF87B7816087BF83B7816083BF85B5A0
S11301208A6685BD80E49CE99DBD8CBD87B78460EB
S113013087BF1FBC8EB581608EBDEBE8F0E0808187
S113014081688083EAE8F0E080818A608083089592
S1130150482FE82FF0E099B3EE0FFF1FE55AFE4F4A
S113016020813181220F331F306E892F90E002C02D
S1130170959587954A95E2F78170992741E0842700
S1130180282B392B3183208381E02115304F09F04E
S113019080E008959DEC699F212D1124322F36951E
S11301A0369536954AE0349F60191124362F2695EA
S11301B026952695899F912D112496959695969529
S11301C0482F5AE0959F401911248A3030F491E069
S11301D0809153018130A9F0919580914E0180FF67
S11301E00CC08FEF80937B013093790120937A01C7
S11301F040937C0190937D01089580E180937B017D
S1130200F3CF90E0E9CF813130F4E82FF0E0E05013
S1130210FF4F808108958FEF0895309158014091E8
S11302205701282F2370209358018C7090E09595E6
S113023087959595879580935701833009F43FC03E
S113024080915601909151012330D9F0813081F091
S1130250913009F0089580914B018093470180917A
S11302604A01809346018091540180934901089585
S113027080914A0180934C0180914B0180934D0100
S1130280E7CF313009F459C0323001F7813009F435
S1130290ADC0913009F485C020918600309187006B
S11302A02A30310509F4B5C02091860030918700C9
S11302B02A5031093093870020938600C7CF80915C
S11302C056014130D9F0423009F0BCCF9091510130
S11302D081110BC0911109C083B590E00B970CF00C
S11302E0A3C013BC20915801ABCF40914B014423D0
S11302F009F467C0415040934B01A6CF909151013E
S1130300811111C091110FC083B590E0843F910514
S11303100CF484C08EEF83BD209158018091560166
S11303209091510191CF40914B01642F70E06B3358
S11303307105CCF010924B0187CF813009F445C090
S1130340913001F12091860030918700265F3F4F64
S11303502F3F310561F058F02FEF30E030938700E4
S11303602093860073CF4F5F40934B016DCF209154
S1130370860030918700265F3F4F3093870020939B
S1130380860064CF20915301211123C020914A019A
S1130390422F50E04C305105C4F121E020934A0132
S11303A055CF20915301211125C020914A01422F9C
S11303B050E0423051050CF441C0215020934A01D1
S11303C045CF4BE340934B013FCF20915301222370
S11303D0E9F2213009F0B6CF20914A01422F50E0D2
S11303E04731510594F010924A0130CF20915301C6
S11303F02223D9F2213009F04FCF20914A01211153
S1130400DCCF27E120934A0121CF2F5F20934A01BB
S11304101DCF109287001092860018CF83B5865F97
S113042083BD209158010CCF83B58A5083BD2091A0
S11304305801809156019091510106CF2CE02093F0
S11304404A0104CF1F93CF93DF931ABA8FEF8BBB6C
S113045080E788BB1AE11A95F1F700C099B3C091FF
S11304606901D0916A01CC0FDD1FD06E892F90E015
S1130470880F892F881F990B11E081278C2B9D2BC6
S113048090936A01809369018115904F31F49091A2
S1130490560181E089278093560189B386FBAA27F8
S11304A0A0F9B0E011E0A127809167019091680163
S11304B0880F991F906E8A2B9B2B909368018093D1
S11304C067018115904F09F4A3C089B385FB6627A2
S11304D060F970E0CB01C1E08C27609165017091F7
S11304E06601660F771F706E682B792B7093660117
S11304F0609365016115704F09F47BC089B384FB77
S1130500EE27E0F9F0E061E0E62780916301909145
S11305106401880F991F906E8E2B9F2B909364011A
S1130520809363018115904F31F49091510181E0E2
S113053089278093510189B381FB222720F930E078
S1130540C901C1E08C2720915D0130915E01220F29
S1130550331F306E282B392B30935E0120935D01BD
S11305602115304FD1F129B380915B0190915C0149
S1130570880F991F906E2095422F417050E0842B74
S1130580952B90935C0180935B018115904FF1F062
S113059080E688BB000012BA80E483B90000909121
S11305A0560180915301890F90915101890F8FB9A0
S11305B0779BFECFC09AC0988FB10E940D0184E052
S11305C082BB13B8DF91CF911F910895809152019E
S11305D08130F1F610925201DBCF809152018130CB
S11305E009F0C1CF10925201809345011092440149
S11305F0BACF80915601813009F080CF9091530198
S113060091117CCF9091540189278093540176CF26
S11306109091530181E08927809353019091540173
S11306209130A9F0811151CF80914C018C3008F4A4
S11306304CCF81E08093540180914C018C3009F4BB
S113064044CF80914C018C5080934C013ECF81303B
S113065049F71092540180914C018C3009F435CF44
S113066080914C01845F80934C012FCF80914F0186
S1130670803809F46DC08091440190914E019C33FF
S113068009F45EC090914D019C3309F44DC09091E2
S11306904C019D30B0F090915301911112C0909192
S11306A04C019C5090934C0120914D019091470135
S11306B02917D1F010925201109250018A3071F131
S11306C0089590914C01983178F3909153019130B1
S11306D059F790914C01985190934C0120914D0100
S11306E0909147012913E6CF20914C019091460146
S11306F02913E0CF20914901909154012913DACFB5
S1130700909151019111D6CF909150019111D6CF72
S113071091E09093520190935001D0CF81E0809367
S1130720520110924501089590914C019F5F90935E
S11307304C0190914C019C30E9F010924D01A7CFEF
S113074090914D019F5F90934D0110924E019ACF6D
S113075080914E018F5F80934E0110924F018091E2
S11307604501813009F087CF809144018F5F8093E8
S1130770440183CF2091540191E092279093540136
S1130780DCCF809152018130E1F0809145018130CC
S113079061F08FE291E00E9435060E94E5058AE14E
S11307A091E00E9435060C94CD0587E291E00E9409
S11307B035060E94E5058AE191E00E9435060C9415
S11307C0CD0581E191E00E9435060E94E5058AE1AC
S11307D091E00E943506E7CF1F920F920FB60F9259
S11307E011248F9381E08093550180914F018F5F95
S11307F080934F018F910F900FBE0F901F9018950B
S11308001F920F920FB60F9211248F939F93809192
S11308105201813041F495B388E0892785BB80E497
S11308209CE99DBD8CBD9F918F910F900FBE0F9041
S11308301F90189591E0811101C090E09FB9779BBA
S1130840FECF6FB9779BFECF809162008860809362
S1130850620080916200877F8093620008952091F6
S11308606C01820F911DFC01808181111FC081E008
S113087080936B0181E08FB9779BFECF80E28FB9C3
S1130880779BFECF809162008860809362008091A4
S11308906200877F8093620080916C018F5F8093F8
S11308A06C01803149F1803269F0089590916B01B7
S11308B09111E0CF91E09FB9779BFECF8FB9779BE1
S11308C0FECFE0CF85ED8A95F1F700001FB8779B46
S11308D0FECF80E88FB9779BFECF8091620088605D
S11308E08093620080916200877F809362001092FF
S11308F06B0110926C010895F5EDFA95F1F7000083
S11309001FB8779BFECF80EC8FB9779BFECF809189
S1130910620088608093620080916200877F809388
S113092062000895660F660F660F605C1FB8779BC0
S1130930FECF6FB9779BFECF209162002860209391
S1130940620020916200277F2093620025ED2A95A2
S1130950F1F70000FC019C01285F3F4F91E0819179
S11309609FB9779BFECF8FB9779BFECF80916200B2
S113097088608093620080916200877F8093620028
S113098085ED8A95F1F70000E217F30741F7089522
S113099090E4899F600D1124605C1FB8779BFECFA3
S11309A06FB9779BFECF809162008860809362006C
S11309B080916200877F809362000895811113C043
S11309C081E08FB9779BFECF80E38FB9779BFECF11
S11309D08091620088608093620080916200877FCA
S11309E08093620008958436B0F48A3060F591E013
S11309F09FB9779BFECF9DEC899F912D11249695ED
S1130A00969596952AE0929F80191124805D8FB95E
S1130A10779BFECFDDCF99E2899F912D112492958A
S1130A209F70905D21E02FB9779BFECF9FB9779B94
S1130A30FECF909162009860909362009091620062
S1130A40977F9093620099E2899F912D112492954A
S1130A509F70382F24E6929F301911242DEC329F79
S1130A60912D1124969596959695905D21E02FB938
S1130A70779BFECF9FB9779BFECF909162009860E1
S1130A809093620090916200977F90936200AFCF41
S1130A9087FF0C94DE0491E09FB9779BFECF9DE223
S1130AA09FB9779BFECF909162009860909362000B
S1130AB090916200977F9093620095ED9A95F1F77B
S1130AC0000081950C94DE041FB8779BFECF8EE066
S1130AD08FB9779BFECF809162008860809362001B
S1130AE080916200877F8093620008951FB8779B8E
S1130AF0FECF8CE08FB9779BFECF80916200886037
S1130B008093620080916200877F809362000895E1
S1130B101FB8779BFECF8EE18FB9779BFECF809174
S1130B20620088608093620080916200877F809376
S1130B30620008951FB8779BFECF88E18FB9779B39
S1130B40FECF809162008860809362008091620091
S1130B50877F809362000895E2E6F0E080818860F8
S1130B6080838081877F808308951FB8779BFECF21
S1130B7081E08FB9779BFECF80916200886080937B
S1130B80620080916200877F809362008FE19CE124
S1130B900197F1F700C0000008951FB8779BFECFBE
S1130BA082E08FB9779BFECF80916200886080934A
S1130BB0620080916200877F809362008FE697E1F4
S1130BC00197F1F700C0000008951FB8779BFECF8E
S1130BD080EC8FB9779BFECF809162008860809310
S1130BE0620080916200877F8093620008951FB83D
S1130BF0779BFECF80E88FB9779BFECF8091620010
S1130C0088608093620080916200877F8093620095
S1130C10089590E131E020E23FB9779BFECF2FB9F0
S1130C20779BFECF80916200886080936200809100
S1130C306200877F8093620085ED8A95F1F700005A
S1130C40915051F7089591E09FB9779BFECF8FB9EA
S1130C50779BFECF809162008860809362008091D0
S1130C606200877F809362000895FC0140E050E0B9
S1130C7060E071E0DF01A40FB51F8C917FB9779B11
S1130C80FECF8FB9779BFECF9091620098609093CE
S1130C90620090916200977F9093620085ED8A953F
S1130CA0F1F700006F5F462F50E0DF010D90002048
S1130CB0E9F79D012E1B3F0B2250310924173507FC
S1130CC0C8F608958FEF99EF0197F1F700C000007F
S1130CD088E0809361001FB8779BFECF80E38FB9D3
S1130CE0779BFECF80916200886080936200809140
S1130CF06200877F809362008FE59DE60197F1F79C
S1130D0000C000001FB8779BFECF80E38FB9779BAC
S1130D10FECF8091620088608093620080916200BF
S1130D20877F809362008FE59DE60197F1F700C00D
S1130D3000001FB8779BFECF80E38FB9779BFECF6F
S1130D408091620088608093620080916200877F56
S1130D50809362008FE59DE60197F1F700C00000E3
S1130D601FB8779BFECF88E38FB9779BFECF809126
S1130D70620088608093620080916200877F809324
S1130D8062008FE19EE40197F1F700C000001FB8F4
S1130D90779BFECF88E08FB9779BFECF809162006E
S1130DA088608093620080916200877F80936200F4
S1130DB08FE19EE40197F1F700C000001FB8779B14
S1130DC0FECF81E08FB9779BFECF8091620088606F
S1130DD08093620080916200877F809362008FE13C
S1130DE09EE40197F1F700C000001FB8779BFECF87
S1130DF086E08FB9779BFECF8091620088608093F4
S1130E00620080916200877F809362008FE19EE49C
S1130E100197F1F700C000001FB8779BFECF8CE06C
S1130E208FB9779BFECF80916200886080936200C7
S1130E3080916200877F809362008FE19EE4019736
S1130E40F1F700C0000008954F925F926F927F9275
S1130E508F929F92AF92BF92CF92DF92EF92FF92C6
S1130E600F931F93CF93DF93CDB7DEB769970FB678
S1130E70F894DEBF0FBECDBF142F422E5E2C00238C
S1130E8079F06B017C01CC24F7FCC394DD24EE24BF
S1130E90FF240C2D6B017C0197FDA3C0C701B60193
S1130EA0442009F496C09E012F5F3F4F5901490128
S1130EB066246A94640C712C3FEF631A730A6A0CFB
S1130EC07B1C2AE030E040E050E00E949F09E62FBE
S1130ED02A8B3B8B4C8B5D8B6A897B898C899D89A2
S1130EE020E32E0FF40121934F016E167F0649F77C
S1130EF099249394940CF501E40DF11D2EE22083C2
S1130F002AE030E040E050E00E949F09E62F2A8B5F
S1130F103B8B4C8B5D8B6E8B7F8B888F998F6A8913
S1130F207B898C899D8931E0390DD501A90DB11DCD
S1130F30E05DEC93932E611571058105910501F730
S1130F40112361F051104BC090E2311738F4F501D0
S1130F50E30FF11D90833F5F1313F9CF002331F0AA
S1130F60F501E30FF11D9DE290833F5F21E03150D5
S1130F70F501E30FF11D90812FB9779BFECF9FB947
S1130F80779BFECF9091620098609093620090915D
S1130F906200977F9093620085ED8A95F1F70000D7
S1130FA03111E5CF69960FB6F894DEBF0FBECDBF01
S1130FB0DF91CF911F910F91FF90EF90DF90CF9031
S1130FC0BF90AF909F908F907F906F905F904F9065
S1130FD00895912C9E012F5F3F4F590191CF90E3CB
S1130FE0B4CFF094E094D094C094C11CD11CE11C03
S1130FF0F11C54CF5F926F927F928F929F92AF9227
S1131000BF92CF92DF92EF92FF920F931F93CF93F1
S1131010DF93CDB7DEB761970FB6F894DEBF0FBE8E
S1131020CDBF5C01962E542E622E8B2C881C8824F6
S1131030881C782C9C0197FD9DC0552009F48EC016
S11310408E010F5F1F4F7801CC24CA94C50CD12C9C
S11310508FEFC81AD80AC00ED11E6AE070E0C90129
S11310600E948B09462F242F372F805DF70181932F
S11310707F01EC15FD0589F7FF24F394F50CF801C5
S1131080E50DF11D8EE2808301C0F92E6AE070E067
S1131090C9010E948B09462F242F372F91E09F0D01
S11310A0F801EF0DF11D805D80832115310569F78D
S11310B0611059C0B7FC63C09920B1F0682D70E08D
S11310C080E2292F30E0492D50E0461B570B2417AE
S11310D0350754F49F5FF801E20FF31F8083292F33
S11310E030E024173507B4F3772031F0F801E90F25
S11310F0F11D8DE280839F5F21E09150F801E90F9B
S1131100F11D80812FB9779BFECF8FB9779BFECFDE
S11311108091620088608093620080916200877F82
S113112080936200F5EDFA95F1F700009111E5CF97
S113113061960FB6F894DEBF0FBECDBFDF91CF919D
S11311401F910F91FF90EF90DF90CF90BF90AF90E1
S11311509F908F907F906F905F900895F12C8E01F7
S11311600F5F1F4F93CF992009F4BECF682D70E015
S113117080E3A7CF22273327281B390B5ECFF394B4
S1131180F394F801E90FF11D8DE28083992059F061
S11311902F2D30E0492D50E02417350724F49F2DDE
S11311A0712C80E297CF9F2DA7CF80EF87BBA39AA6
S11311B085B385BB89E180934E0180E180934D0125
S11311C010924C0180914C018D3040F080914C0183
S11311D08C5080934C0181E0809354010E947C00E8
S11311E0789413BC88EC90E09093870080938600F9
S11311F0CFEF00E210E4D0E580915501813009F48D
S11312005BC00E9436030E94C10380915101811189
S113121060C080914D0180934B0180914C0180937B
S11312204A0160914D0180914C010E94CA00CABBE1
S11312300000A9E7B1E020E030E080E090E0ED912B
S11312402F5F3F4FE13100F5F0E0E050FF4F408168
S113125084309105E9F08230910509F445C0CBBB97
S1131260582F5295507F58BB4BBBEFE3F1E03197B9
S1131270F1F700C0000025303105B9F00196ED9179
S11312802F5F3F4FE13100F34FEF8430910519F7A1
S1131290809154018130C9F1CBBB18BB4BBB8FE3A8
S11312A091E00197F1F700C00000CBBBD8BB80915F
S11312B05501813009F0A5CF0E94220210925501F8
S11312C00E9436030E94C10380915101882309F4CE
S11312D0A0CF6091470160934B01809146018093B8
S11312E04A010E94CA00A3CF50915201513059F0D3
S11312F0CBBB08BB4BBBEFE3F1E03197F1F700C088
S113130000000196BCCF4B7FF3CF80915301811134
S1131310C3CF4F77C1CF97FB072E16F4009407D0A5
S113132077FD09D00E94BE0907FC05D03EF49095D4
S113133081959F4F0895709561957F4F0895052E6F
S113134097FB1EF400940E94B60957FD07D00E9433
S1131350D20907FC03D04EF40C94B609509540957D
S1131360309521953F4F4F4F5F4F0895909580954D
S1131370709561957F4F8F4F9F4F0895AA1BBB1B9C
S113138051E107C0AA1FBB1FA617B70710F0A61B81
S1131390B70B881F991F5A95A9F780959095BC01A2
S11313A0CD010895A1E21A2EAA1BBB1BFD010DC09D
S11313B0AA1FBB1FEE1FFF1FA217B307E407F50701
S11313C020F0A21BB30BE40BF50B661F771F881FDD
S11313D0991F1A9469F760957095809590959B0173
S10F13E0AC01BD01CF010895F894FFCFCB
S11313ECC0F9A4B0999282F880988883C6A1868E9D
S11313FCFC414C41524D2121210020202020202051
S113140C20202020202000534E4F4F5A45440041A9
S113141C4C41524D204E4F5420545249474745524B
S107142C454400002F
S9030000FC
