:100000000C9446000C9465000C9465000C946500FB
:100010000C9465000C9465000C9465000C946500CC
:100020000C9465000C9465000C9465000C946500BC
:100030000C9465000C9465000C9494040C94650079
:100040000C9480040C9465000C9465000C9465007D
:100050000C9465000C94AE040C9465000C9465003F
:100060000C9465000C9465000C9465000C9465007C
:100070000C9465000C9465000C9465000C9465006C
:100080000C9465000C9465000C94650011241FBE4F
:10009000CFEFD0E1DEBFCDBF11E0A0E0B1E0E0E600
:1000A000F5E100E00BBF02C007900D92A834B10744
:1000B000D9F721E0A8E4B1E001C01D92A63BB20748
:1000C000E1F70E947B090C94AE0A0C94000083E3D4
:1000D000809352018EE08093510187E1809350011B
:1000E000809150018D3018F081E080935C0108957B
:1000F00087B3876087BB8FEF82B981BB80E58DB9FD
:1001000081E08EB980B7886080BF87B7816087BF84
:1001100083B7816083BF85B5896685BD80E49CE92E
:100120009DBD8CBD87B7846087BF1FBC8EB58160C5
:100130008EBDEBE8F0E0808181688083EAE8F0E042
:1001400080818A60808387E687B98FE886B90895C1
:10015000482FE82FF0E099B3EE0FFF1FED59FE4F47
:1001600020813181220F331F306E892F90E002C031
:10017000959587954A95E2F78170992741E0842704
:10018000282B392B3183208381E02115304F09F052
:1001900080E008959DEC699F212D1124322F369522
:1001A000369536954AE0349F60191124362F2695EE
:1001B00026952695899F912D11249695969596952D
:1001C000482F5AE0959F401911248A3030F491E06D
:1001D00080915B018130A9F091958091520180FF5F
:1001E0000CC08FEF809383013093810120938201B3
:1001F0004093840190938501089580E18093830169
:10020000F3CF90E0E9CF813130F4E82FF0E0E05017
:10021000FF4F808108958FEF0895509160014091C4
:100220005F01282F2370209360018C7090E09595DA
:1002300087959595879580935F018330E9F130919B
:100240005E01409157012330D9F0313081F04130C7
:1002500009F0089580914F0180934B0180914E01E8
:1002600080934A0180915C0180934D0108958091B3
:100270004E018093500180914F0180935101E7CF4F
:10028000513009F460C0523001F7313009F4B1C087
:10029000413009F48EC080918600909187000A97C2
:1002A00009F4BAC080918600909187000A979093D4
:1002B000870080938600C9CF30915E01413001F103
:1002C000423009F0BECF40915701311110C04111A9
:1002D0000EC060915901613051F423B530E02630F1
:1002E00031050CF0A8C083BD20916001A8CF80919A
:1002F0004F01882309F44AC0815080934F01A3CF56
:1003000040915701311115C0411113C0809159011D
:10031000813079F483B590E0893F91050CF485C074
:100320008AEF83BD2091600130915E0140915701B9
:100330008ACF80914F01682F70E06B337105C4F054
:1003400010924F0180CF313009F442C0413011F199
:1003500080918600909187000A968F3F910561F009
:1003600058F08FEF90E090938700809386006DCFD8
:100370008F5F80934F0167CF8091860090918700B7
:100380000A9690938700809386005FCF8BE38093DB
:100390004F0159CF80915B0181111EC080914E01A8
:1003A000682F70E06C3071059CF181E080934E0104
:1003B0004CCF80915B01811120C080914E01682F4C
:1003C00070E0623071056CF1815080934E013DCF39
:1003D00080915B01882311F3813009F0B9CF8091BE
:1003E0004E01682F70E06731710594F010924E0154
:1003F0002CCF80915B01882301F3813009F04BCF32
:1004000080914E018111E0CF87E180934E011DCF95
:100410008F5F80934E0119CF109287001092860053
:1004200014CF8CE080934E0110CF83B58B5F83BDDA
:100430002091600104CF83B5855083BD2091600178
:1004400030915E0140915701FECECF92DF92EF9244
:10045000FF920F931F93CF93DF931ABA8FEF8BBB4B
:1004600080E788BB2AE12A95F1F700C099B3E090B4
:100470007101F0907201EE0CFF1C30EEF32A892F0F
:1004800090E09C01220F232F221F330B81E02827AD
:10049000C9018E299F299093720180937101811562
:1004A000904F31F490915E0181E0892780935E0145
:1004B00089B386FB882780F9C82F30E0D32F81E0ED
:1004C000C82780916F0190917001880F991F906EDD
:1004D000C82BD92BD0937001C0936F01C115D04F99
:1004E00009F4F9C089B385FBAA27A0F9B0E031E08F
:1004F000A32780916D0190916E01880F991F906ED6
:10050000A82BB92BB0936E01A0936D01A115B04F2C
:1005100009F4D2C089B384FBEE27E0F9F0E021E0D2
:10052000E22780916B0190916C01880F991F906E6A
:10053000E82BF92BF0936C01E0936B01E115F04F80
:1005400031F49091570181E089278093570189B355
:1005500083FB662760F970E081E06827809169017C
:1005600090916A01880F991F906E682B792B709378
:100570006A01609369016115704F41F480915501E2
:1005800091E089278093550190935A0189B382FBAA
:10059000442740F950E031E0432780916701909172
:1005A0006801880F991F906E482B592B5093680152
:1005B000409367014115504F31F49091590181E00A
:1005C00089278093590189B381FBCC24C0F8D12CB1
:1005D000960141E024278091650190916601880F82
:1005E000991F906E282B392B30936601209365015B
:1005F0002115304F09F452C029B3809163019091C5
:100600006401880F991F906E2095022F017010E0F1
:10061000082B192B10936401009363010115104FEF
:10062000A1F180E688BB000012BA80E483B9000023
:1006300020915E0140E8249F9001112490915B017C
:1006400040E4949FC0011124282B9091570130E27F
:10065000939FC0011124822B90915901990F990FFA
:10066000892B8FB9779BFECFC09AC0988FB10E941B
:100670000D0184E082BB13B8DF91CF911F910F91E0
:10068000FF90EF90DF90CF900895809158018130D6
:1006900041F61092580180935A01C3CF80915801BE
:1006A000813009F0A9CF109258018093490110922E
:1006B000480180935A01A0CF80915E01813009F0FA
:1006C00029CF90915B01911125CF90915C018927F1
:1006D00080935C011FCF90915B0181E0892780931B
:1006E0005B0190915C019130A9F08111FBCE80916A
:1006F00050018C3008F4F6CE81E080935C0180914B
:1007000050018C3009F4EECE809150018C508093D2
:100710005001E8CE813049F710925C018091500180
:100720008C3009F4DFCE80915001845F80935001BA
:10073000D9CE80915301803809F482C0809148015C
:10074000909152019C3309F46FC0909151019C33F8
:1007500009F45EC0909150019D30B0F090915B0122
:10076000911112C0909150019C5090935001209192
:10077000510190914B012917D1F01092580110921C
:1007800056018A3099F1089590915001983178F38B
:1007900090915B01913059F790915001985190934D
:1007A00050012091510190914B012913E6CF2091E6
:1007B000500190914A012913E0CF20914D01909171
:1007C0005C012913DACF909157019111D6CF909106
:1007D00056019111D6CF90915501913091F6909399
:1007E00058019093560190935A01CBCF81E08093AA
:1007F0005801109249011092480180935A0180914A
:100800004F0180934B0180914E0180934A010895DE
:10081000909150019F5F90935001909150019C30B6
:1008200021F11092510196CF909158019130D1F061
:10083000909151019F5F909351011092520185CF89
:10084000809152018F5F80935201109253018091E9
:100850004901813009F072CF809148018F5F809308
:1008600048016ECF90935A01E3CF90915B019111B3
:10087000D8CF20915C0191E0922790935C01D1CF79
:100880000E945B0680915801813021F180914901DD
:10089000813059F180915501882321F0813071F028
:1008A0000C9473068FE291E00E94DB060E948B0697
:1008B0008AE191E00E94DB060C9473068DE391E0DF
:1008C0000E94DB060E948B068AE191E00E94DB0613
:1008D0000C94730681E191E00E94DB060E948B0676
:1008E0008AE191E00E94DB06DBCF87E291E00E9483
:1008F000DB060E948B068AE191E00E94DB06D0CFE6
:100900001F920F920FB60F9211248F9381E0809364
:100910005D01809153018F5F809353018F910F9000
:100920000FBE0F901F9018951F920F920FB60F9247
:1009300011248F939F9380915801813041F495B396
:1009400088E0892785BB80E49CE99DBD8CBD9F9193
:100950008F910F900FBE0F901F9018951F920F92BE
:100960000FB60F9211248F9380915901811102C00B
:1009700085B183BD8F910F900FBE0F901F9018957A
:1009800091E0811101C090E09FB9779BFECF6FB9D4
:10099000779BFECF80916200886080936200809197
:1009A0006200877F80936200089520917401820F16
:1009B000911DFC01808181111FC081E08093730132
:1009C00081E08FB9779BFECF80E28FB9779BFECF16
:1009D0008091620088608093620080916200877FCE
:1009E00080936200809174018F5F809374018031E5
:1009F00049F1803269F00895909173019111E0CF2F
:100A000091E09FB9779BFECF8FB9779BFECFE0CF68
:100A100085ED8A95F1F700001FB8779BFECF80E83F
:100A20008FB9779BFECF80916200886080936200CF
:100A300080916200877F8093620010927301109210
:100A400074010895F5EDFA95F1F700001FB8779B52
:100A5000FECF80EC8FB9779BFECF809162008860DB
:100A60008093620080916200877F80936200089586
:100A7000660F660F660F605C1FB8779BFECF6FB97D
:100A8000779BFECF20916200286020936200209126
:100A90006200277F2093620025ED2A95F1F7000080
:100AA000FC019C01285F3F4F91E081919FB9779BAA
:100AB000FECF8FB9779BFECF8091620088608093D4
:100AC000620080916200877F8093620085ED8A9545
:100AD000F1F70000E217F30741F7089590E4899FCA
:100AE000600D1124605C1FB8779BFECF6FB9779BB8
:100AF000FECF8091620088608093620080916200E6
:100B0000877F809362000895811113C081E08FB9BF
:100B1000779BFECF80E38FB9779BFECF80916200F9
:100B200088608093620080916200877F809362007A
:100B300008958436B0F48A3060F591E09FB9779BD0
:100B4000FECF9DEC899F912D1124969596959695B3
:100B50002AE0929F80191124805D8FB9779BFECF88
:100B6000DDCF99E2899F912D112492959F70905D20
:100B700021E02FB9779BFECF9FB9779BFECF909155
:100B8000620098609093620090916200977F9093CA
:100B9000620099E2899F912D112492959F70382FC0
:100BA00024E6929F301911242DEC329F912D1124AF
:100BB000969596959695905D21E02FB9779BFECFFF
:100BC0009FB9779BFECF90916200986090936200EE
:100BD00090916200977F90936200AFCF87FF0C9453
:100BE000840591E09FB9779BFECF9DE29FB9779BEB
:100BF000FECF9091620098609093620090916200A5
:100C0000977F9093620095ED9A95F1F7000081959A
:100C10000C9484051FB8779BFECF8EE08FB9779B2D
:100C2000FECF8091620088608093620080916200B4
:100C3000877F8093620008951FB8779BFECF8CE07A
:100C40008FB9779BFECF80916200886080936200AD
:100C500080916200877F8093620008951FB8779B20
:100C6000FECF8EE18FB9779BFECF809162008860C6
:100C70008093620080916200877F80936200089574
:100C80001FB8779BFECF88E18FB9779BFECF80910D
:100C9000620088608093620080916200877F809309
:100CA00062000895E2E6F0E08081886080838081C0
:100CB000877F808308951FB8779BFECF81E08FB92F
:100CC000779BFECF80916200886080936200809164
:100CD0006200877F809362008FE19CE10197F1F7CA
:100CE00000C0000008951FB8779BFECF82E08FB947
:100CF000779BFECF80916200886080936200809134
:100D00006200877F809362008FE697E10197F1F799
:100D100000C0000008951FB8779BFECF80EC8FB90C
:100D2000779BFECF80916200886080936200809103
:100D30006200877F8093620008951FB8779BFECF83
:100D400080E88FB9779BFECF8091620088608093A6
:100D5000620080916200877F80936200089590E135
:100D600031E020E23FB9779BFECF2FB9779BFECFD2
:100D70008091620088608093620080916200877F2A
:100D80008093620085ED8A95F1F70000915051F74C
:100D9000089591E09FB9779BFECF8FB9779BFECFE7
:100DA0008091620088608093620080916200877FFA
:100DB000809362000895FC0140E050E060E071E043
:100DC000DF01A40FB51F8C917FB9779BFECF8FB940
:100DD000779BFECF90916200986090936200909113
:100DE0006200977F9093620085ED8A95F1F700008D
:100DF0006F5F462F50E0DF010D900020E9F79D0165
:100E00002E1B3F0B2250310924173507C8F60895D1
:100E10008FEF99EF0197F1F700C0000088E0809311
:100E200061001FB8779BFECF80E38FB9779BFECF21
:100E30008091620088608093620080916200877F69
:100E4000809362008FE59DE60197F1F700C00000F6
:100E50001FB8779BFECF80E38FB9779BFECF809141
:100E6000620088608093620080916200877F809337
:100E700062008FE59DE60197F1F700C000001FB802
:100E8000779BFECF80E38FB9779BFECF8091620086
:100E900088608093620080916200877F8093620007
:100EA0008FE59DE60197F1F700C000001FB8779B22
:100EB000FECF88E38FB9779BFECF80916200886078
:100EC0008093620080916200877F809362008FE14F
:100ED0009EE40197F1F700C000001FB8779BFECF9A
:100EE00088E08FB9779BFECF809162008860809305
:100EF000620080916200877F809362008FE19EE4B0
:100F00000197F1F700C000001FB8779BFECF81E08A
:100F10008FB9779BFECF80916200886080936200DA
:100F200080916200877F809362008FE19EE4019749
:100F3000F1F700C000001FB8779BFECF86E08FB9A5
:100F4000779BFECF809162008860809362008091E1
:100F50006200877F809362008FE19EE40197F1F742
:100F600000C000001FB8779BFECF8CE08FB9779B45
:100F7000FECF809162008860809362008091620061
:100F8000877F809362008FE19EE40197F1F700C0B4
:100F9000000008954F925F926F927F928F929F927E
:100FA000AF92BF92CF92DF92EF92FF920F931F9377
:100FB000CF93DF93CDB7DEB769970FB6F894DEBF56
:100FC0000FBECDBF142F422E5E2C002379F06B0193
:100FD0007C01CC24F7FCC394DD24EE24FF240C2DEB
:100FE0006B017C0197FDA3C0C701B601442009F441
:100FF00096C09E012F5F3F4F5901490166246A94B4
:10100000640C712C3FEF631A730A6A0C7B1C2AE094
:1010100030E040E050E00E94590AE62F2A8B3B8BDB
:101020004C8B5D8B6A897B898C899D8920E32E0F8F
:10103000F40121934F016E167F0649F7992493948A
:10104000940CF501E40DF11D2EE220832AE030E03E
:1010500040E050E00E94590AE62F2A8B3B8B4C8BD4
:101060005D8B6E8B7F8B888F998F6A897B898C894A
:101070009D8931E0390DD501A90DB11DE05DEC93DD
:10108000932E611571058105910501F7112361F01A
:1010900051104BC090E2311738F4F501E30FF11D08
:1010A00090833F5F1313F9CF002331F0F501E30F75
:1010B000F11D9DE290833F5F21E03150F501E30F88
:1010C000F11D90812FB9779BFECF9FB9779BFECF03
:1010D0009091620098609093620090916200977F77
:1010E0009093620085ED8A95F1F700003111E5CF0C
:1010F00069960FB6F894DEBF0FBECDBFDF91CF91DA
:101100001F910F91FF90EF90DF90CF90BF90AF9025
:101110009F908F907F906F905F904F900895912C4B
:101120009E012F5F3F4F590191CF90E3B4CFF094D0
:10113000E094D094C094C11CD11CE11CF11C54CF8C
:101140005F926F927F928F929F92AF92BF92CF9257
:10115000DF92EF92FF920F931F93CF93DF93CDB760
:10116000DEB761970FB6F894DEBF0FBECDBF5C014E
:10117000962E542E622E8B2C881C8824881C782C4A
:101180009C0197FD9DC0552009F48EC08E010F5F14
:101190001F4F7801CC24CA94C50CD12C8FEFC81AEC
:1011A000D80AC00ED11E6AE070E0C9010E94450A4B
:1011B000462F242F372F805DF70181937F01EC1597
:1011C000FD0589F7FF24F394F50CF801E50DF11DF9
:1011D0008EE2808301C0F92E6AE070E0C9010E94AE
:1011E000450A462F242F372F91E09F0DF801EF0D70
:1011F000F11D805D80832115310569F7611059C0AB
:10120000B7FC63C09920B1F0682D70E080E2292F0F
:1012100030E0492D50E0461B570B2417350754F496
:101220009F5FF801E20FF31F8083292F30E024171E
:101230003507B4F3772031F0F801E90FF11D8DE2A5
:1012400080839F5F21E09150F801E90FF11D8081BB
:101250002FB9779BFECF8FB9779BFECF809162002D
:1012600088608093620080916200877F8093620033
:10127000F5EDFA95F1F700009111E5CF61960FB603
:10128000F894DEBF0FBECDBFDF91CF911F910F91BC
:10129000FF90EF90DF90CF90BF90AF909F908F9096
:1012A0007F906F905F900895F12C8E010F5F1F4F1C
:1012B00093CF992009F4BECF682D70E080E3A7CFCB
:1012C00022273327281B390B5ECFF394F394F801C0
:1012D000E90FF11D8DE28083992059F02F2D30E028
:1012E000492D50E02417350724F49F2D712C80E2FE
:1012F00097CF9F2DA7CF80EF87BBA39A85B385BBE0
:1013000083E3809352018EE08093510187E18093C3
:101310005001809150018D3018F081E080935C0184
:101320000E947800789413BC88EC90E0909387003A
:10133000809386000E9408070E944004CFEF00E2DD
:1013400010E4D0E5369A80915D01813009F467C0E0
:101350000E94990380915A01813009F46BC08091F9
:101360005701811170C08091510180934F0180918C
:10137000500180934E0160915101809150010E9473
:10138000CA00CABB0000A1E8B1E020E030E080E084
:1013900090E0ED912F5F3F4FE13110F5F0E0E0502C
:1013A000FF4F40810097F9F08430910511F18230B0
:1013B000910509F453C0CBBB582F5295507F58BBB1
:1013C0004BBBEFE3F1E03197F1F700C000002530AF
:1013D0003105E9F00196ED912F5F3F4FE131F0F2D9
:1013E0004FEF009709F750915501513021F74F7792
:1013F000E2CF80915C01813009F441C0CBBB18BBC6
:101400004BBB8FE391E00197F1F700C00000CBBB2D
:10141000D8BB369A80915D01813009F099CF0E9446
:10142000250210925D010E94990380915A0181303A
:1014300009F095CF10925A010E9440048091570103
:10144000882309F490CF60914B0160934F01809104
:101450004A0180934E010E94CA0093CF50915801D7
:10146000513059F0CBBB08BB4BBBEFE3F1E03197F8
:10147000F1F700C000000196AECF4B7FF3CF809113
:101480005B018111BBCF4F77B9CF97FB072E16F4C5
:10149000009407D077FD09D00E94780A07FC05D098
:1014A0003EF4909581959F4F0895709561957F4F7B
:1014B0000895052E97FB1EF400940E94700A57FDB4
:1014C00007D00E948C0A07FC03D04EF40C94700ADB
:1014D00050954095309521953F4F4F4F5F4F089560
:1014E00090958095709561957F4F8F4F9F4F089590
:1014F000AA1BBB1B51E107C0AA1FBB1FA617B7073A
:1015000010F0A61BB70B881F991F5A95A9F7809555
:101510009095BC01CD010895A1E21A2EAA1BBB1B18
:10152000FD010DC0AA1FBB1FEE1FFF1FA217B307AF
:10153000E407F50720F0A21BB30BE40BF50B661FC5
:10154000771F881F991F1A9469F760957095809589
:1015500090959B01AC01BD01CF010895F894FFCF98
:10156000C0F9A4B0999282F880988883C6A1868E2B
:10157000FC414C41524D21212100202020202020DF
:1015800020202020202000534E4F4F5A4544004138
:101590004C41524D204E4F542053455400414C4134
:0815A000524D20534554000098
:00000001FF
