:100000000C9446000C9465000C9465000C946500FB
:100010000C9465000C9465000C9465000C946500CC
:100020000C9465000C9465000C9465000C946500BC
:100030000C9465000C9465000C9465000C946500AC
:100040000C9465000C9465000C9465000C9465009C
:100050000C9465000C9465000C9465000C9465008C
:100060000C9465000C9465000C9465000C9465007C
:100070000C9465000C9465000C9465000C9465006C
:100080000C9465000C9465000C94650011241FBE4F
:10009000CFEFD0E1DEBFCDBF11E0A0E0B1E0E6E7F9
:1000A000F3E000E00BBF02C007900D92AA30B10749
:1000B000D9F721E0AAE0B1E001C01D92AB32B2074E
:1000C000E1F70E943C010C94B9010C940000482F08
:1000D000E82FF0E099B3EE0FFF1FE65FFE4F20819F
:1000E0003181220F331F306E892F90E002C0959529
:1000F00087954A95E2F78170992741E08427282B5C
:10010000392B3183208381E02115304F09F080E0C5
:100110000895CF93DF93AC018A30910508F46EC047
:100120000A978A35910508F449C0CA018456910995
:100130008438934008F46BC0411584E0580708F0F8
:1001400061C09A013695279536952795369527955E
:10015000A5ECB0E20E94AA01FC01F295E295EF70D5
:10016000EF27FF70EF2728EE33E0E29FC001E39F07
:10017000900DF29F900D1124FA01E81BF90B9F01DD
:10018000ADECBCEC0E94AA01969587959695879553
:10019000969587954E2F2AE0829F40191124582F5B
:1001A0009F013695279536952795ABE7B4E10E94D8
:1001B000AA0196958795E82F91E012C09A01ADECBF
:1001C000BCEC0E94AA019695879596958795969581
:1001D00087952AE0829F40191124582F9FEFEFEF57
:1001E00040932601509327018FEF80932801E093DD
:1001F000290190932A01DF91CF9108959FEFEFEFAE
:100200005FEFEECF9FEFEFEF5FEF4FEFE9CF9A0198
:100210003695279536952795ABE7B4E10E94AA015C
:10022000FC01EC01D695C79524E62C9FC0012D9FBB
:10023000900D1124EA01C81BD90B9E01ADECBCEC5A
:100240000E94AA019695879596958795969587958C
:100250004C2F2AE0829F40191124582FF695E795DC
:100260009FEFBECF8A3030F4E82FF0E0E050FF4F30
:10027000808108958FEF089580EF87BBC0E0D0E0C4
:10028000FF24FA9490E7D92E01E010E020E6E22E58
:100290008FE39FE10197F1F700C000001ABAFBBAA3
:1002A000D8BAEAE0F1E020E030E099B34081518132
:1002B000440F551F506E892F90E0022E02C0959575
:1002C00087950A94E2F78170992761E08627842B4D
:1002D000952B819391938115904F49F4C801022E7B
:1002E00002C0880F991F0A94E2F7C80FD91F2F5F29
:1002F0003F4F28303105C9F6E8BAC11564E0D6078A
:1003000030F0CF5FD340C11584E0D807D0F7CE01DD
:100310000E948900FABA0000A6E2B1E080E0ED9107
:10032000EA30B0F4F0E0E050FF4F9081282F2295A2
:10033000207F28BB9BBBEFE3FFE13197F1F700C0C3
:1003400000008F5F853009F4A3CFED91EA3050F3C0
:100350009FEFECCFA29FB001B39FC001A39F700D90
:10036000811D1124911DB29F700D811D1124911DBD
:060370000895F894FFCF90
:0A037600C0F9A4B0999282F88098B3
:00000001FF
