S01100006C6162325F636F64652E73726563B8
S11300000C9446000C9465000C9465000C946500F7
S11300100C9465000C9465000C9465000C946500C8
S11300200C9465000C9465000C9465000C946500B8
S11300300C9465000C9465000C9465000C946500A8
S11300400C9465000C9465000C9465000C94650098
S11300500C9465000C9465000C9465000C94650088
S11300600C9465000C9465000C9465000C94650078
S11300700C9465000C9465000C9465000C94650068
S11300800C9465000C9465000C94650011241FBE4B
S1130090CFEFD0E1DEBFCDBF11E0A0E0B1E0E4E7F7
S11300A0F3E000E00BBF02C007900D92AA30B10745
S11300B0D9F721E0AAE0B1E001C01D92AD31B20749
S11300C0E1F70E9438010C94B8010C94000049B384
S11300D020910A0130910B01220F331F306E50E042
S11300E002C0559547958A95E2F74170552781E0FE
S11300F04827242B352B30930B0120930A0181E0F0
S11301002115304F09F080E00895CF93DF93AC01BF
S11301108A30910508F46EC00A978A35910508F46F
S113012049C0CA01845691098438934008F46BC0CD
S1130130411584E0580708F061C09A013695279567
S11301403695279536952795A5ECB0E20E94A9012E
S1130150FC01F295E295EF70EF27FF70EF2728EE90
S113016033E0E29FC001E39F900DF29F900D1124B4
S1130170FA01E81BF90B9F01ADECBCEC0E94A9014C
S11301809695879596958795969587954E2F2AE00F
S1130190829F40191124582F9F0136952795369533
S11301A02795ABE7B4E10E94A90196958795E82FBE
S11301B091E012C09A01ADECBCEC0E94A9019695A5
S11301C0879596958795969587952AE0829F4019FD
S11301D01124582F9FEFEFEF40931801509319010A
S11301E08FEF80931A01E0931B0190931C01DF9120
S11301F0CF9108959FEFEFEF5FEFEECF9FEFEFEF1B
S11302005FEF4FEFE9CF9A013695279536952795FD
S1130210ABE7B4E10E94A901FC01EC01D695C795B6
S113022024E62C9FC0012D9F900D1124EA01C81BC8
S1130230D90B9E01ADECBCEC0E94A9019695879563
S113024096958795969587954C2F2AE0829F40191D
S11302501124582FF695E7959FEFBECF8A3030F4DE
S1130260E82FF0E0E050FF4F808108958FEF08956C
S113027080EF87BBC0E0D0E0FF24FA9490E7D92E4A
S113028001E010E020E6E22E8FE39FE10197F1F711
S113029000C000001ABAFBBAD8BA20E030E099B323
S11302A040910A0150910B01440F551F506E892F44
S11302B090E0022E02C0959587950A94E2F781702A
S11302C09927E1E08E27842B952B90930B01809343
S11302D00A018115904F49F4C801022E02C0880F0B
S11302E0991F0A94E2F7C80FD91F8FEC97E0019782
S11302F0F1F700C000002F5F3F4F2830310579F639
S1130300E8BAC11594E0D90708F0D370CE010E9471
S11303108500FABA0000A8E1B1E080E0ED91EA308E
S1130320B0F4F0E0E050FF4F9081282F2295207F19
S113033028BB9BBBEFE3FFE13197F1F700C000005E
S11303408F5F853009F4A0CFED91EA3050F39FEF31
S1130350ECCFA29FB001B39FC001A39F700D811D7C
S11303601124911DB29F700D811D1124911D0895BA
S1070370F894FFCF2B
S10D0374C0F9A4B0999282F88098B1
S9030000FC
