S01100006C6162325F636F64652E73726563B8
S11300000C9487000C94A6000C94A6000C94A600F3
S11300100C94A6000C94A6000C94A6000C94A600C4
S11300200C94A6000C94A6000C94A6000C94A600B4
S11300300C94A6000C94A6000C94A6000C94A600A4
S11300400C94A6000C94A6000C94A6000C94A60094
S11300500C94A6000C94A6000C94A6000C94A60084
S11300600C94A6000C94A6000C94A6000C94A60074
S11300700C94A6000C94A6000C94A6000C94A60064
S11300800C94A6000C94A6000C94A60007634236B8
S1130090B79BD8A71A39685618AEBAAB558C1D3C15
S11300A0B7CC5763BD6DEDFD753EF6177231BF00D9
S11300B00000803F08000000BE922449123EABAA13
S11300C0AA2ABECDCCCC4C3E00000080BEABAAAA6E
S11300D0AA3E00000000BF000000803F00000000B6
S11300E000084178D3BB4387D1133D190E3CC3BDEF
S11300F04282AD2B3E68EC8276BED98FE1A93E4C9C
S113010080EFFFBE01C4FF7F3F0000000000112408
S11301101FBECFEFD0E1DEBFCDBF11E0A0E0B1E064
S1130120E2E2FBE000E00BBF02C007900D92AA30B0
S1130130B107D9F721E0AAE0B1E001C01D92AD31C9
S1130140B207E1F70E947E010C948F050C94000025
S113015049B320910A0130910B01220F331F306EF5
S113016050E002C0559547958A95E2F741705527AE
S1130170242B352B30930B0120930A0181E02115A8
S1130180304F09F080E00895CF93DF93AC010197DD
S1130190099708F475C0CA010A978A35910508F4CD
S11301A04FC0CA01845691098438934008F471C041
S11301B0411584E0580708F067C09A0136952795E1
S11301C03695279536952795A5ECB0E20E94F20165
S11301D0EC01FC01F295E295EF70EF27FF70EF2739
S11301E028EE33E0E29FC001E39F900DF29F900D53
S11301F01124FA01E81BF90B9F01ADECBCEC0E9441
S1130200F2019695879596958795969587954E2FA5
S11302102AE0829F40191124582F9F013695279573
S113022036952795ABE7B4E10E94F2019695879540
S1130230E82FD295C295CF70CD27DF70CD2712C09D
S11302409A01ADECBCEC0E94F201969587959695C7
S11302508795969587952AE0829F40191124582FF7
S1130260CFEFEFEF40931801509319018FEF809374
S11302701A01E0931B01C0931C01DF91CF910895F3
S1130280CFEFEFEF5FEFEECFCFEFEFEF5FEF4FEF9B
S1130290E9CF9A013695279536952795ABE7B4E1D2
S11302A00E94F201FC01EC01D695C79524E62C9F2F
S11302B0C0012D9F900D1124EA01C81BD90B9E018A
S11302C0ADECBCEC0E94F2019695879596958795C6
S11302D0969587954C2F2AE0829F40191124582F18
S11302E0F695E795CFEFBECF8A3030F4E82FF0E0F3
S11302F0E050FF4F808108958FEF089580EF87BB12
S1130300E12CF12CDD24DA9420E7C22E8FE39FE167
S11303100197F1F700C000001ABADBBAC8BAC0915D
S11303200A01D0910B0100E010E089B3CC0FDD1F6E
S1130330D06E90E0002E02C0959587950A94E2F75E
S113034081709927C82BD92BD0930B01C0930A0134
S1130350C11590EFD907E9F4B801012E000C880B00
S1130360990B0E949F029B01AC0160E070E080E069
S113037090E40E942B034B015C01B70180E090E004
S11303800E949D02A50194010E9402020E946E0235
S11303907B010F5F1F4F0830110539F618BAE114BD
S11303A084E0F80610F093E0F922C7010E94C4002B
S11303B0DABA0000A8E1B1E080E0ED91EA3080F41F
S11303C0F0E0E050FF4F9081282F2295207F28BB3A
S11303D09BBB8F5F853009F499CFED91EA3080F3B0
S11303E09FEFF2CFA29FB001B39FC001A39F700DF6
S11303F0811D1124911DB29F700D811D1124911D29
S113040008955058BB27AA270E9419020C94F102A0
S11304100E94E30238F00E94EA0220F039F49F3F80
S113042019F426F40C94E0020EF4E095E7FB0C9426
S1130430DA02E92F0E94020358F3BA17620773071E
S11304408407950720F079F4A6F50C9424030EF4A0
S1130450E0950B2EBA2FA02D0B01B90190010C01D0
S1130460CA01A0011124FF27591B99F0593F50F4E8
S1130470503E68F11A16F040A22F232F342F442740
S1130480585FF3CF469537952795A795F040539538
S1130490C9F77EF41F16BA0B620B730B840BBAF008
S11304A09150A1F0FF0FBB1F661F771F881FC2F773
S11304B00EC0BA0F621F731F841F48F48795779587
S11304C06795B795F7959E3F08F0B0CF9395880F41
S11304D008F09927EE0F9795879508950E940A03CF
S11304E088F09F5798F0B92F9927B751B0F0E1F0F1
S11304F0660F771F881F991F1AF0BA95C9F714C0A1
S1130500B13091F00E942403B1E008950C942403C7
S1130510672F782F8827B85F39F0B93FCCF38695D9
S113052077956795B395D9F73EF490958095709536
S113053061957F4F8F4F9F4F0895E89409C097FBB3
S11305403EF490958095709561957F4F8F4F9F4FA6
S11305509923A9F0F92F96E9BB279395F6958795EA
S113056077956795B795F111F8CFFAF4BB0F11F4AD
S113057060FF1BC06F5F7F4F8F4F9F4F16C0882354
S113058011F096E911C0772321F09EE8872F762F8A
S113059005C0662371F096E8862F70E060E02AF0CB
S11305A09A95660F771F881FDAF7880F96958795B7
S11305B097F9089597F99F6780E870E060E00895DF
S11305C09FEF80EC089500240A9416161706180667
S11305D00906089500240A94121613061406050643
S11305E00895092E0394000C11F4882352F0BB0FD4
S11305F040F4BF2B11F460FF04C06F5F7F4F8F4F37
S11306009F4F089557FD9058440F551F59F05F3F71
S113061071F04795880F97FB991F61F09F3F79F020
S113062087950895121613061406551FF2CF4695A2
S1130630F1DF08C0161617061806991FF1CF869524
S11306407105610508940895E894BB276627772708
S1130650CB0197F90895FA01EE0FFF1F309621059B
S11306603105A1F16115710561F48038BFE39B0781
S113067049F168949038810561F08038BFEF9B0799
S113068041F099234AF5FF3FE1053105210519F1B0
S1130690E8940894E795D901AA2329F4AB2FBE2F37
S11306A0F85FD0F310C0FF5F70F4A695E0F7F73958
S11306B050F019F0FF3A38F49F779F930DD00F90C4
S11306C007FC9058089546F00C94E00260E070E056
S11306D080E89FE308954FE79F775F934F933F939D
S11306E02F930E9426042F913F914F915F910E9476
S11306F0A2040C94830329F416F00C94DA020C94EB
S113070024030C94E0020E940A03A8F39638A0F78D
S113071007F80F92E8942BE33AEA48EB5FE70E946C
S1130720B8040F920F920F924DB75EB70F920E94CA
S11307306E04ECE8F0E00E94B5034F915F91EF91F5
S1130740FF91E595EE1FFF1F49F0FE57E06844272F
S1130750EE0F441FFA95E1F74195550B0E94E8030B
S11307600F9007FE0C94DC030895DF93CF931F933F
S11307700F93FF92EF92DF927B018C01689406C085
S1130780DA2EEF010E94B504FE01E894A5912591AB
S1130790359145915591A6F3EF010E941902FE018E
S11307A09701A801DA9469F7DF90EF90FF900F9119
S11307B01F91CF91DF9108959B01AC0160E070E03F
S11307C080E89FE30C940F050C94DA020C948105E5
S11307D00E940A03D8F39923C9F3940F511DA3F37C
S11307E09150504094F059F0882332F0660F771FEF
S11307F0881F91505040C1F79E3F51052CF7880F38
S1130800911D9695879597F908955F3FACF0983EB2
S11308109CF0BB27869577956795B79508F4B160EA
S11308209395C1F7BB0F58F711F460FFE8CF6F5FE2
S11308307F4F8F4F9F4FE3CF0C94250316F00C94FA
S113084081050C94E00268940C94DA020E940A0375
S1130850A8F39923C1F3AEF3DF93CF931F930F93C0
S1130860FF92C92FDD2788232AF02197660F771F6F
S1130870881FDAF720E030E040E85FEB9FE3883937
S113088020F0803E38F021968F770E940202E4EB3C
S1130890F0E004C00E940202E1EEF0E00E94B50321
S11308A08B01BE01EC01FB2E6F5771097595771F03
S11308B0880B990B0E949F0228E132E741E35FE332
S11308C00E94B504AF2D9801AE01FF900F911F91C6
S11308D0CF91DF910E9419020C94F102FA01DC011C
S11308E0AA0FBB1F9B01AC01BF5728F42227332753
S11308F04427507820C0B75190F4AB2F002446957C
S113090037952795011CA395D2F3002071F0220F8F
S1130910331F441FB395DAF30ED00C9401026130F7
S11309207105A0E88A07B94630F49B01AC0166273B
S1130930772788279078309621F02083318342836B
S1130940538308950E94B5040C94F1020E94E302BB
S113095038F00E94EA0220F0952311F00C94DA0298
S11309600C94E00211240C9425030E94020370F3FA
S1130970959FC1F3950F50E0551F629FF001729F40
S1130980BB27F00DB11D639FAA27F00DB11DAA1F4F
S1130990649F6627B00DA11D661F829F2227B00D9C
S11309A0A11D621F739FB00DA11D621F839FA00D27
S11309B0611D221F749F3327A00D611D231F849F77
S11309C0600D211D822F762F6A2F11249F575040CE
S11309D09AF0F1F088234AF0EE0FFF1FBB1F661F49
S11309E0771F881F91505040A9F79E3F510580F012
S11309F00C94DA020C9425035F3FE4F3983ED4F39D
S1130A00869577956795B795F795E7959F5FC1F7B5
S1130A10FE2B880F911D9695879597F908950E944E
S1130A2023050C94F1020E94EA0258F00E94E302AA
S1130A3040F029F45F3F29F00C94DA0251110C9430
S1130A4025030C94E0020E94020368F39923B1F396
S1130A50552391F3951B550BBB27AA2762177307E0
S1130A60840738F09F5F5F4F220F331F441FAA1F74
S1130A70A9F335D00E2E3AF0E0E832D09150504030
S1130A80E695001CCAF72BD0FE2F29D0660F771FDE
S1130A90881FBB1F261737074807AB07B0E809F0C4
S1130AA0BB0B802DBF01FF2793585F4F3AF09E3F49
S1130AB0510578F00C94DA020C9425035F3FE4F3BB
S1130AC0983ED4F3869577956795B795F7959F5F8C
S1130AD0C9F7880F911D9695879597F90895E1E0D8
S1130AE0660F771F881FBB1F621773078407BA0737
S1130AF020F0621B730B840BBA0BEE1F88F7E09592
S1130B0008959F3F31F0915020F48795779567952C
S1130B10B795880F911D9695879597F90895F89440
S1050B20FFCF01
S10D0B22C0F9A4B0999282F88098FB
S9030000FC
