S01000006C6162355F3136382E73726563B2
S11300006AC084C083C082C081C080C07FC07EC0FB
S11300107DC07CC07BC07AC079C078C077C076C010
S113002075C074C08AC072C071C070C06FC06EC029
S11300309DC06CC0D7C0B0C0AFC0AEC0ADC0ACC076
S1130040ABC0AAC0CFC0A8C0A7C0A6C0A5C0A4C04A
S1130050A3C0A2C0D1C0A0C09FC09EC09DC09CC070
S11300609BC09AC099C098C097C096C095C094C0D0
S113007093C092C0C1C090C08FC08EC08DC08CC0D0
S11300808BC08AC089C088C087C086C085C084C030
S113009083C082C0C8C080C07FC07EC07DC07CC019
S11300A07BC07AC0C4C078C077C076C075C074C045
S11300B073C072C071C070C06FC06EC06DC06CC0C0
S11300C06BC06AC0C2C068C067C066C065C064C097
S11300D063C062C078C011241FBECFEFD2E0DEBF80
S11300E0CDBF11E0A0E0B1E0E0E9F4E002C005908A
S11300F00D92A430B107D9F721E0A4E0B1E001C02A
S11301001D92A436B207E1F75DD1C0C179CF6091E9
S1130110020170E041E080E8B7D00000089542E0B9
S113012069E071E080E8C1D0E9E0F1E0808190E02D
S1130130982F88272181822B08951F920F920FB642
S11301400F9211248F939F938091C6008093060190
S113015095B184E0892785B981E0809304019F915A
S11301608F910F900FBE0F901F9018951F920F92B2
S11301700FB60F9211242F933F938F939F93AF93B6
S1130180BF93EF93FF93E091B9008E2F90E0FC01B1
S11301903897E135F105A0F08091B90080930B0107
S11301A084E08093BC00FF91EF91BF91AF919F9148
S11301B08F913F912F910F900FBE0F901F90189524
S11301C0E65EFF4F099480910501E0910C01F091E6
S11301D00D01E80FF11D8091BB00808384E98093B9
S11301E0BC00E1CF80910E018093BB001092050109
S11301F085E88093BC00D7CF8091050190910F01D1
S1130200891760F7E0910C01F0910D0191E0980FCE
S113021090930501E80FF11D80818093BB0085E870
S11302208093BC00C0CF85EA8093BC00BCCF2091F2
S1130230050180910F0130E090E0019728173907FC
S1130240DCF485EC8093BC00AECFE0910C01F0911E
S11302500D018091050121E0280F20930501E80F8D
S1130260F11D8091BB00808380910F0130E090E00C
S11302700197281739072CF385E88093BC0093CFA6
S11302808091BC00817008959091BC0090FDFCCFDA
S11302908E7F80930E0170930D0160930C01409347
S11302A00F0185EA8093BC0008959091BC0090FDF5
S11302B0FCCF816080930E0170930D0160930C015B
S11302C040930F0185EA8093BC0008958FEF8093DB
S11302D0BB001092B9008CE08093B8000895FC0133
S11302E0CB01880F892F881F990B9195413089F490
S11302F09C01220F331F220F331F220F331F280F9D
S1130300391FADECBCEC83D096958795969587956F
S113031080964AE0BF0187C09091C00095FFFCCF52
S11303208093C6008091C00085FFFCCF0895FC0136
S11303302081222371F031969091C00095FFFCCF6B
S11303402093C6009091C00095FFFCCF219121110C
S1130350F3CF08959C01C901F9014491442399F014
S11303602F5F3F4FFC0184919091C00095FFFCCF1B
S11303708093C6009091C00095FFFCCFC901F9019C
S113038044914111EDCF0895E1ECF0E0808188695A
S11303908083E2ECF0E08081866080831092C50067
S11303A083E08093C400089580E89EE302C001972F
S11303B039F02091C00027FFFACF8091C60008953C
S11303C080E0089583DF6091020170E041E080E8FD
S11303D05BDF0000D9DF789484B1866084B985B18D
S11303E0866085B93B9A439AC8E0D2E088B18C27ED
S11303F088B9809104018130C9F787E48DDF82E5F3
S11304008BDF1092040185B18D2785B9EFCFA29FB0
S1130410B001B39FC001A39F01D0B29F700D811D95
S11304201124911D0895BB274A3031F4992322F4F5
S1130430BDE2909581959F4F01C0BB27FB015527D5
S1130440AA27880F991FAA1FA41710F0A41B83952D
S11304505051B9F7A05DAA3308F0A95DA1930097A4
S113046079F7B111B1931192CB0100C0DC01FC0109
S1130470672F71917723E1F7329704C07C916D93D4
S113048070836291AE17BF07C8F30895F894FFCF45
S10704900101E3007F
S9030000FC
