:100000000C9446000C9465000C9465000C946500FB
:100010000C9465000C9465000C9465000C946500CC
:100020000C9465000C9465000C9465000C946500BC
:100030000C9465000C9465000C9465000C946500AC
:100040000C94CB010C9465000C9465000C94650035
:100050000C9465000C9465000C9465000C9465008C
:100060000C9465000C9465000C9465000C9465007C
:100070000C9465000C9465000C9465000C9465006C
:100080000C9465000C9465000C94650011241FBE4F
:10009000CFEFD0E1DEBFCDBF11E0A0E0B1E0E2E9FB
:1000A000F5E000E00BBF02C007900D92A031B10750
:1000B000D9F721E0A0E1B1E001C01D92A833B20759
:1000C000E1F70E9464020C94C7020C94000087B30D
:1000D000876087BB8FEF82B981BB80E58DB981E0F6
:1000E0008EB987B7816087BF83B7856083BF089566
:1000F000482FE82FF0E099B3EE0FFF1FE95EFE4FA7
:1001000020813181220F331F306E892F90E002C091
:10011000959587954A95E2F78170992741E0842764
:10012000282B392B3183208381E02115304F09F0B2
:1001300080E00895CF93DF93AC018A30910508F4F5
:100140006EC00A978A35910508F449C0CA018456E1
:1001500091098438934008F46BC0411584E0580736
:1001600008F061C09A013695279536952795369502
:100170002795A5ECB0E20E94B802FC01F295E29549
:10018000EF70EF27FF70EF2728EE33E0E29FC0010A
:10019000E39F900DF29F900D1124FA01E81BF90BDB
:1001A0009F01ADECBCEC0E94B802969587959695A0
:1001B0008795969587954E2F2AE0829F40191124A6
:1001C000582F9F013695279536952795ABE7B4E1D3
:1001D0000E94B80296958795E82F91E012C09A0187
:1001E000ADECBCEC0E94B8029695879596958795E4
:1001F000969587952AE0829F40191124582F9FEFEA
:10020000EFEF40933301509334018FEF809335012A
:10021000E093360190933701DF91CF9108959FEFDE
:10022000EFEF5FEFEECF9FEFEFEF5FEF4FEFE9CF35
:100230009A013695279536952795ABE7B4E10E944C
:10024000B802FC01EC01D695C79524E62C9FC001AD
:100250002D9F900D1124EA01C81BD90B9E01ADEC16
:10026000BCEC0E94B80296958795969587959695D1
:1002700087954C2F2AE0829F40191124582FF6951C
:10028000E7959FEFBECF803130F4E82FF0E0E050EB
:10029000FF4F808108958FEF0895309113014091B1
:1002A0001201282F2370209313018C7090E09595F4
:1002B000879595958795809312018330F9F02330C7
:1002C00009F008953130B1F13230D9F7809114013D
:1002D0008330B9F34091140180911501909116017A
:1002E00021E030E002C0220F331F4A95E2F7821B63
:1002F000930B90931601809315010895413091F16D
:100300004230E9F6809114018330C9F26091140102
:10031000809115019091160141E050E002C0440F18
:10032000551F6A95E2F7841B950B909316018093F5
:100330001501C5CF80911401833019F24091140149
:10034000209115013091160181E090E002C0880FE4
:10035000991F4A95E2F7820F931F9093160180939D
:100360001501089580911401833009F4A8CF60919C
:100370001401409115015091160181E090E002C0F6
:10038000880F991F6A95E2F7840F951F90931601C5
:100390008093150194CF1F920F920FB60F921124E4
:1003A0000BB60F922F933F934F935F936F937F936F
:1003B0008F939F93AF93BF93CF93EF93FF931ABA0B
:1003C0008FEF8BBB80E788BBC0911401C0931101F4
:1003D000E7E1F1E020E030E061E070E089B390E037
:1003E000022E02C0959587950A94E2F781709927AD
:1003F000A1E08A27A081B181AA0FBB1FB06E8A2B12
:100400009B2B819391938115904F09F44BC02F5FE3
:100410003F4F2230310511F729B380911B01909194
:100420001C01880F991F906E22FB442740F950E071
:1004300021E04227482B592B50931C0140931B016C
:100440004115504F31F49091100181E0892780933C
:10045000100180E688BB12BA80E483B90000000076
:10046000809114018FB9779BFECFC09A88B388BB67
:100470008FB10E944D0184E082BB13B8FF91EF91D0
:10048000CF91BF91AF919F918F917F916F915F912C
:100490004F913F912F910F900BBE0F900FBE0F9079
:1004A0001F901895A0911401CB01022E01C0880F56
:1004B0000A94EAF78A278093140180911401C813E3
:1004C000A6CF10921401A3CF80EF87BB87B38760BC
:1004D00087BB8FEF82B981BB80E58DB981E08EB992
:1004E00087B7816087BF83B7856083BF78940FEF3C
:1004F00013E0C1E0D0E0FF24FA94809115019091BF
:100500001601811594404CF1D0931601C09315014A
:1005100080911501909116010E949A00FABA00008C
:10052000A3E3B1E080E0ED91E031A8F4F0E0E05029
:10053000FF4F2081982F9295907F98BB2BBBE7E5CA
:10054000F2E03197F1F700C000008F5F8530A9F22B
:10055000ED91E03158F32FEFEDCF8091150190919F
:10056000160197FFD5CF1093160100931501D0CF38
:10057000A29FB001B39FC001A39F700D811D1124E4
:10058000911DB29F700D811D1124911D0895F89445
:02059000FFCF9B
:10059200C0F9A4B0999282F880988883C621868E89
:00000001FF
